{
	"todo/todo.sol": {
		"ToDoContract": {
			"abi": [
				{
					"inputs": [
						{
							"internalType": "string",
							"name": "toDoItem",
							"type": "string"
						}
					],
					"name": "addItem",
					"outputs": [],
					"stateMutability": "nonpayable",
					"type": "function"
				},
				{
					"inputs": [
						{
							"internalType": "uint256",
							"name": "toDoItemIndex",
							"type": "uint256"
						}
					],
					"name": "deleteItem",
					"outputs": [],
					"stateMutability": "nonpayable",
					"type": "function"
				},
				{
					"inputs": [],
					"name": "getToDoList",
					"outputs": [
						{
							"components": [
								{
									"internalType": "uint256",
									"name": "id",
									"type": "uint256"
								},
								{
									"internalType": "string",
									"name": "toDoItem",
									"type": "string"
								},
								{
									"internalType": "bool",
									"name": "isDone",
									"type": "bool"
								},
								{
									"internalType": "bool",
									"name": "isDeleted",
									"type": "bool"
								}
							],
							"internalType": "struct ToDoContract.toDoList[]",
							"name": "",
							"type": "tuple[]"
						}
					],
					"stateMutability": "view",
					"type": "function"
				},
				{
					"inputs": [
						{
							"internalType": "uint256",
							"name": "toDoItemIndex",
							"type": "uint256"
						},
						{
							"internalType": "bool",
							"name": "isDone",
							"type": "bool"
						},
						{
							"internalType": "string",
							"name": "toDoItem",
							"type": "string"
						}
					],
					"name": "updateItem",
					"outputs": [],
					"stateMutability": "nonpayable",
					"type": "function"
				}
			],
			"devdoc": {
				"kind": "dev",
				"methods": {},
				"version": 1
			},
			"evm": {
				"assembly": "    /* \"todo/todo.sol\":75:1080  contract ToDoContract{... */\n  mstore(0x40, 0x80)\n  callvalue\n  dup1\n  iszero\n  tag_1\n  jumpi\n  0x00\n  dup1\n  revert\ntag_1:\n  pop\n  dataSize(sub_0)\n  dup1\n  dataOffset(sub_0)\n  0x00\n  codecopy\n  0x00\n  return\nstop\n\nsub_0: assembly {\n        /* \"todo/todo.sol\":75:1080  contract ToDoContract{... */\n      mstore(0x40, 0x80)\n      callvalue\n      dup1\n      iszero\n      tag_1\n      jumpi\n      0x00\n      dup1\n      revert\n    tag_1:\n      pop\n      jumpi(tag_2, lt(calldatasize, 0x04))\n      shr(0xe0, calldataload(0x00))\n      dup1\n      0x27e9f294\n      eq\n      tag_3\n      jumpi\n      dup1\n      0x56f67e77\n      eq\n      tag_4\n      jumpi\n      dup1\n      0x5ece8f5e\n      eq\n      tag_5\n      jumpi\n      dup1\n      0x654fc833\n      eq\n      tag_6\n      jumpi\n    tag_2:\n      0x00\n      dup1\n      revert\n        /* \"todo/todo.sol\":292:582  function addItem(string calldata toDoItem) external{... */\n    tag_3:\n      tag_7\n      0x04\n      dup1\n      calldatasize\n      sub\n      dup2\n      add\n      swap1\n      tag_8\n      swap2\n      swap1\n      tag_9\n      jump\t// in\n    tag_8:\n      tag_10\n      jump\t// in\n    tag_7:\n      stop\n        /* \"todo/todo.sol\":711:941  function updateItem(uint256 toDoItemIndex,bool isDone,string memory toDoItem) external{... */\n    tag_4:\n      tag_11\n      0x04\n      dup1\n      calldatasize\n      sub\n      dup2\n      add\n      swap1\n      tag_12\n      swap2\n      swap1\n      tag_13\n      jump\t// in\n    tag_12:\n      tag_14\n      jump\t// in\n    tag_11:\n      stop\n        /* \"todo/todo.sol\":590:703  function getToDoList() external view returns (toDoList[] memory){... */\n    tag_5:\n      tag_15\n      tag_16\n      jump\t// in\n    tag_15:\n      mload(0x40)\n      tag_17\n      swap2\n      swap1\n      tag_18\n      jump\t// in\n    tag_17:\n      mload(0x40)\n      dup1\n      swap2\n      sub\n      swap1\n      return\n        /* \"todo/todo.sol\":950:1075  function deleteItem(uint256 toDoItemIndex) external{... */\n    tag_6:\n      tag_19\n      0x04\n      dup1\n      calldatasize\n      sub\n      dup2\n      add\n      swap1\n      tag_20\n      swap2\n      swap1\n      tag_21\n      jump\t// in\n    tag_20:\n      tag_22\n      jump\t// in\n    tag_19:\n      stop\n        /* \"todo/todo.sol\":292:582  function addItem(string calldata toDoItem) external{... */\n    tag_10:\n        /* \"todo/todo.sol\":354:364  uint newId */\n      0x00\n        /* \"todo/todo.sol\":367:379  ListToOwners */\n      dup1\n        /* \"todo/todo.sol\":367:391  ListToOwners[msg.sender] */\n      0x00\n        /* \"todo/todo.sol\":380:390  msg.sender */\n      caller\n        /* \"todo/todo.sol\":367:391  ListToOwners[msg.sender] */\n      0xffffffffffffffffffffffffffffffffffffffff\n      and\n      0xffffffffffffffffffffffffffffffffffffffff\n      and\n      dup2\n      mstore\n      0x20\n      add\n      swap1\n      dup2\n      mstore\n      0x20\n      add\n      0x00\n      keccak256\n        /* \"todo/todo.sol\":367:398  ListToOwners[msg.sender].length */\n      dup1\n      sload\n      swap1\n      pop\n        /* \"todo/todo.sol\":354:398  uint newId = ListToOwners[msg.sender].length */\n      swap1\n      pop\n        /* \"todo/todo.sol\":409:421  ListToOwners */\n      0x00\n        /* \"todo/todo.sol\":409:433  ListToOwners[msg.sender] */\n      dup1\n        /* \"todo/todo.sol\":422:432  msg.sender */\n      caller\n        /* \"todo/todo.sol\":409:433  ListToOwners[msg.sender] */\n      0xffffffffffffffffffffffffffffffffffffffff\n      and\n      0xffffffffffffffffffffffffffffffffffffffff\n      and\n      dup2\n      mstore\n      0x20\n      add\n      swap1\n      dup2\n      mstore\n      0x20\n      add\n      0x00\n      keccak256\n        /* \"todo/todo.sol\":439:573  toDoList({... */\n      mload(0x40)\n      dup1\n      0x80\n      add\n      0x40\n      mstore\n      dup1\n        /* \"todo/todo.sol\":466:471  newId */\n      dup4\n        /* \"todo/todo.sol\":439:573  toDoList({... */\n      dup2\n      mstore\n      0x20\n      add\n        /* \"todo/todo.sol\":496:504  toDoItem */\n      dup6\n      dup6\n        /* \"todo/todo.sol\":439:573  toDoList({... */\n      dup1\n      dup1\n      0x1f\n      add\n      0x20\n      dup1\n      swap2\n      div\n      mul\n      0x20\n      add\n      mload(0x40)\n      swap1\n      dup2\n      add\n      0x40\n      mstore\n      dup1\n      swap4\n      swap3\n      swap2\n      swap1\n      dup2\n      dup2\n      mstore\n      0x20\n      add\n      dup4\n      dup4\n      dup1\n      dup3\n      dup5\n      calldatacopy\n      0x00\n      dup2\n      dup5\n      add\n      mstore\n      not(0x1f)\n      0x1f\n      dup3\n      add\n      and\n      swap1\n      pop\n      dup1\n      dup4\n      add\n      swap3\n      pop\n      pop\n      pop\n      pop\n      pop\n      pop\n      pop\n      dup2\n      mstore\n      0x20\n      add\n        /* \"todo/todo.sol\":526:531  false */\n      0x00\n        /* \"todo/todo.sol\":439:573  toDoList({... */\n      iszero\n      iszero\n      dup2\n      mstore\n      0x20\n      add\n        /* \"todo/todo.sol\":556:561  false */\n      0x00\n        /* \"todo/todo.sol\":439:573  toDoList({... */\n      iszero\n      iszero\n      dup2\n      mstore\n      pop\n        /* \"todo/todo.sol\":409:574  ListToOwners[msg.sender].push(toDoList({... */\n      swap1\n      dup1\n      0x01\n      dup2\n      sload\n      add\n      dup1\n      dup3\n      sstore\n      dup1\n      swap2\n      pop\n      pop\n      0x01\n      swap1\n      sub\n      swap1\n      0x00\n      mstore\n      keccak256(0x00, 0x20)\n      swap1\n      0x03\n      mul\n      add\n      0x00\n      swap1\n      swap2\n      swap1\n      swap2\n      swap1\n      swap2\n      pop\n      0x00\n      dup3\n      add\n      mload\n      dup2\n      0x00\n      add\n      sstore\n      0x20\n      dup3\n      add\n      mload\n      dup2\n      0x01\n      add\n      swap1\n      dup2\n      tag_25\n      swap2\n      swap1\n      tag_26\n      jump\t// in\n    tag_25:\n      pop\n      0x40\n      dup3\n      add\n      mload\n      dup2\n      0x02\n      add\n      exp(0x0100, 0x00)\n      dup2\n      sload\n      dup2\n      0xff\n      mul\n      not\n      and\n      swap1\n      dup4\n      iszero\n      iszero\n      mul\n      or\n      swap1\n      sstore\n      pop\n      0x60\n      dup3\n      add\n      mload\n      dup2\n      0x02\n      add\n      exp(0x0100, 0x01)\n      dup2\n      sload\n      dup2\n      0xff\n      mul\n      not\n      and\n      swap1\n      dup4\n      iszero\n      iszero\n      mul\n      or\n      swap1\n      sstore\n      pop\n      pop\n      pop\n        /* \"todo/todo.sol\":343:582  {... */\n      pop\n        /* \"todo/todo.sol\":292:582  function addItem(string calldata toDoItem) external{... */\n      pop\n      pop\n      jump\t// out\n        /* \"todo/todo.sol\":711:941  function updateItem(uint256 toDoItemIndex,bool isDone,string memory toDoItem) external{... */\n    tag_14:\n        /* \"todo/todo.sol\":857:863  isDone */\n      dup2\n        /* \"todo/todo.sol\":808:820  ListToOwners */\n      0x00\n        /* \"todo/todo.sol\":808:832  ListToOwners[msg.sender] */\n      dup1\n        /* \"todo/todo.sol\":821:831  msg.sender */\n      caller\n        /* \"todo/todo.sol\":808:832  ListToOwners[msg.sender] */\n      0xffffffffffffffffffffffffffffffffffffffff\n      and\n      0xffffffffffffffffffffffffffffffffffffffff\n      and\n      dup2\n      mstore\n      0x20\n      add\n      swap1\n      dup2\n      mstore\n      0x20\n      add\n      0x00\n      keccak256\n        /* \"todo/todo.sol\":833:846  toDoItemIndex */\n      dup5\n        /* \"todo/todo.sol\":808:847  ListToOwners[msg.sender][toDoItemIndex] */\n      dup2\n      sload\n      dup2\n      lt\n      tag_28\n      jumpi\n      tag_29\n      tag_30\n      jump\t// in\n    tag_29:\n    tag_28:\n      swap1\n      0x00\n      mstore\n      keccak256(0x00, 0x20)\n      swap1\n      0x03\n      mul\n      add\n        /* \"todo/todo.sol\":808:854  ListToOwners[msg.sender][toDoItemIndex].isDone */\n      0x02\n      add\n      0x00\n        /* \"todo/todo.sol\":808:863  ListToOwners[msg.sender][toDoItemIndex].isDone = isDone */\n      0x0100\n      exp\n      dup2\n      sload\n      dup2\n      0xff\n      mul\n      not\n      and\n      swap1\n      dup4\n      iszero\n      iszero\n      mul\n      or\n      swap1\n      sstore\n      pop\n        /* \"todo/todo.sol\":925:933  toDoItem */\n      dup1\n        /* \"todo/todo.sol\":874:886  ListToOwners */\n      0x00\n        /* \"todo/todo.sol\":874:898  ListToOwners[msg.sender] */\n      dup1\n        /* \"todo/todo.sol\":887:897  msg.sender */\n      caller\n        /* \"todo/todo.sol\":874:898  ListToOwners[msg.sender] */\n      0xffffffffffffffffffffffffffffffffffffffff\n      and\n      0xffffffffffffffffffffffffffffffffffffffff\n      and\n      dup2\n      mstore\n      0x20\n      add\n      swap1\n      dup2\n      mstore\n      0x20\n      add\n      0x00\n      keccak256\n        /* \"todo/todo.sol\":899:912  toDoItemIndex */\n      dup5\n        /* \"todo/todo.sol\":874:913  ListToOwners[msg.sender][toDoItemIndex] */\n      dup2\n      sload\n      dup2\n      lt\n      tag_32\n      jumpi\n      tag_33\n      tag_30\n      jump\t// in\n    tag_33:\n    tag_32:\n      swap1\n      0x00\n      mstore\n      keccak256(0x00, 0x20)\n      swap1\n      0x03\n      mul\n      add\n        /* \"todo/todo.sol\":874:922  ListToOwners[msg.sender][toDoItemIndex].toDoItem */\n      0x01\n      add\n        /* \"todo/todo.sol\":874:933  ListToOwners[msg.sender][toDoItemIndex].toDoItem = toDoItem */\n      swap1\n      dup2\n      tag_35\n      swap2\n      swap1\n      tag_26\n      jump\t// in\n    tag_35:\n      pop\n        /* \"todo/todo.sol\":711:941  function updateItem(uint256 toDoItemIndex,bool isDone,string memory toDoItem) external{... */\n      pop\n      pop\n      pop\n      jump\t// out\n        /* \"todo/todo.sol\":590:703  function getToDoList() external view returns (toDoList[] memory){... */\n    tag_16:\n        /* \"todo/todo.sol\":636:653  toDoList[] memory */\n      0x60\n        /* \"todo/todo.sol\":671:683  ListToOwners */\n      0x00\n        /* \"todo/todo.sol\":671:695  ListToOwners[msg.sender] */\n      dup1\n        /* \"todo/todo.sol\":684:694  msg.sender */\n      caller\n        /* \"todo/todo.sol\":671:695  ListToOwners[msg.sender] */\n      0xffffffffffffffffffffffffffffffffffffffff\n      and\n      0xffffffffffffffffffffffffffffffffffffffff\n      and\n      dup2\n      mstore\n      0x20\n      add\n      swap1\n      dup2\n      mstore\n      0x20\n      add\n      0x00\n      keccak256\n        /* \"todo/todo.sol\":664:695  return ListToOwners[msg.sender] */\n      dup1\n      sload\n      dup1\n      0x20\n      mul\n      0x20\n      add\n      mload(0x40)\n      swap1\n      dup2\n      add\n      0x40\n      mstore\n      dup1\n      swap3\n      swap2\n      swap1\n      dup2\n      dup2\n      mstore\n      0x20\n      add\n      0x00\n      swap1\n    tag_37:\n      dup3\n      dup3\n      lt\n      iszero\n      tag_38\n      jumpi\n      dup4\n      dup3\n      swap1\n      0x00\n      mstore\n      keccak256(0x00, 0x20)\n      swap1\n      0x03\n      mul\n      add\n      mload(0x40)\n      dup1\n      0x80\n      add\n      0x40\n      mstore\n      swap1\n      dup2\n      0x00\n      dup3\n      add\n      sload\n      dup2\n      mstore\n      0x20\n      add\n      0x01\n      dup3\n      add\n      dup1\n      sload\n      tag_40\n      swap1\n      tag_41\n      jump\t// in\n    tag_40:\n      dup1\n      0x1f\n      add\n      0x20\n      dup1\n      swap2\n      div\n      mul\n      0x20\n      add\n      mload(0x40)\n      swap1\n      dup2\n      add\n      0x40\n      mstore\n      dup1\n      swap3\n      swap2\n      swap1\n      dup2\n      dup2\n      mstore\n      0x20\n      add\n      dup3\n      dup1\n      sload\n      tag_42\n      swap1\n      tag_41\n      jump\t// in\n    tag_42:\n      dup1\n      iszero\n      tag_43\n      jumpi\n      dup1\n      0x1f\n      lt\n      tag_44\n      jumpi\n      0x0100\n      dup1\n      dup4\n      sload\n      div\n      mul\n      dup4\n      mstore\n      swap2\n      0x20\n      add\n      swap2\n      jump(tag_43)\n    tag_44:\n      dup3\n      add\n      swap2\n      swap1\n      0x00\n      mstore\n      keccak256(0x00, 0x20)\n      swap1\n    tag_45:\n      dup2\n      sload\n      dup2\n      mstore\n      swap1\n      0x01\n      add\n      swap1\n      0x20\n      add\n      dup1\n      dup4\n      gt\n      tag_45\n      jumpi\n      dup3\n      swap1\n      sub\n      0x1f\n      and\n      dup3\n      add\n      swap2\n    tag_43:\n      pop\n      pop\n      pop\n      pop\n      pop\n      dup2\n      mstore\n      0x20\n      add\n      0x02\n      dup3\n      add\n      0x00\n      swap1\n      sload\n      swap1\n      0x0100\n      exp\n      swap1\n      div\n      0xff\n      and\n      iszero\n      iszero\n      iszero\n      iszero\n      dup2\n      mstore\n      0x20\n      add\n      0x02\n      dup3\n      add\n      0x01\n      swap1\n      sload\n      swap1\n      0x0100\n      exp\n      swap1\n      div\n      0xff\n      and\n      iszero\n      iszero\n      iszero\n      iszero\n      dup2\n      mstore\n      pop\n      pop\n      dup2\n      mstore\n      0x20\n      add\n      swap1\n      0x01\n      add\n      swap1\n      jump(tag_37)\n    tag_38:\n      pop\n      pop\n      pop\n      pop\n      swap1\n      pop\n        /* \"todo/todo.sol\":590:703  function getToDoList() external view returns (toDoList[] memory){... */\n      swap1\n      jump\t// out\n        /* \"todo/todo.sol\":950:1075  function deleteItem(uint256 toDoItemIndex) external{... */\n    tag_22:\n        /* \"todo/todo.sol\":1063:1067  true */\n      0x01\n        /* \"todo/todo.sol\":1011:1023  ListToOwners */\n      0x00\n        /* \"todo/todo.sol\":1011:1035  ListToOwners[msg.sender] */\n      dup1\n        /* \"todo/todo.sol\":1024:1034  msg.sender */\n      caller\n        /* \"todo/todo.sol\":1011:1035  ListToOwners[msg.sender] */\n      0xffffffffffffffffffffffffffffffffffffffff\n      and\n      0xffffffffffffffffffffffffffffffffffffffff\n      and\n      dup2\n      mstore\n      0x20\n      add\n      swap1\n      dup2\n      mstore\n      0x20\n      add\n      0x00\n      keccak256\n        /* \"todo/todo.sol\":1036:1049  toDoItemIndex */\n      dup3\n        /* \"todo/todo.sol\":1011:1050  ListToOwners[msg.sender][toDoItemIndex] */\n      dup2\n      sload\n      dup2\n      lt\n      tag_47\n      jumpi\n      tag_48\n      tag_30\n      jump\t// in\n    tag_48:\n    tag_47:\n      swap1\n      0x00\n      mstore\n      keccak256(0x00, 0x20)\n      swap1\n      0x03\n      mul\n      add\n        /* \"todo/todo.sol\":1011:1060  ListToOwners[msg.sender][toDoItemIndex].isDeleted */\n      0x02\n      add\n      0x01\n        /* \"todo/todo.sol\":1011:1067  ListToOwners[msg.sender][toDoItemIndex].isDeleted = true */\n      0x0100\n      exp\n      dup2\n      sload\n      dup2\n      0xff\n      mul\n      not\n      and\n      swap1\n      dup4\n      iszero\n      iszero\n      mul\n      or\n      swap1\n      sstore\n      pop\n        /* \"todo/todo.sol\":950:1075  function deleteItem(uint256 toDoItemIndex) external{... */\n      pop\n      jump\t// out\n        /* \"#utility.yul\":7:82   */\n    tag_50:\n        /* \"#utility.yul\":40:46   */\n      0x00\n        /* \"#utility.yul\":73:75   */\n      0x40\n        /* \"#utility.yul\":67:76   */\n      mload\n        /* \"#utility.yul\":57:76   */\n      swap1\n      pop\n        /* \"#utility.yul\":7:82   */\n      swap1\n      jump\t// out\n        /* \"#utility.yul\":88:205   */\n    tag_51:\n        /* \"#utility.yul\":197:198   */\n      0x00\n        /* \"#utility.yul\":194:195   */\n      dup1\n        /* \"#utility.yul\":187:199   */\n      revert\n        /* \"#utility.yul\":211:328   */\n    tag_52:\n        /* \"#utility.yul\":320:321   */\n      0x00\n        /* \"#utility.yul\":317:318   */\n      dup1\n        /* \"#utility.yul\":310:322   */\n      revert\n        /* \"#utility.yul\":334:451   */\n    tag_53:\n        /* \"#utility.yul\":443:444   */\n      0x00\n        /* \"#utility.yul\":440:441   */\n      dup1\n        /* \"#utility.yul\":433:445   */\n      revert\n        /* \"#utility.yul\":457:574   */\n    tag_54:\n        /* \"#utility.yul\":566:567   */\n      0x00\n        /* \"#utility.yul\":563:564   */\n      dup1\n        /* \"#utility.yul\":556:568   */\n      revert\n        /* \"#utility.yul\":580:697   */\n    tag_55:\n        /* \"#utility.yul\":689:690   */\n      0x00\n        /* \"#utility.yul\":686:687   */\n      dup1\n        /* \"#utility.yul\":679:691   */\n      revert\n        /* \"#utility.yul\":717:1270   */\n    tag_56:\n        /* \"#utility.yul\":775:783   */\n      0x00\n        /* \"#utility.yul\":785:791   */\n      dup1\n        /* \"#utility.yul\":835:838   */\n      dup4\n        /* \"#utility.yul\":828:832   */\n      0x1f\n        /* \"#utility.yul\":820:826   */\n      dup5\n        /* \"#utility.yul\":816:833   */\n      add\n        /* \"#utility.yul\":812:839   */\n      slt\n        /* \"#utility.yul\":802:924   */\n      tag_109\n      jumpi\n        /* \"#utility.yul\":843:922   */\n      tag_110\n      tag_53\n      jump\t// in\n    tag_110:\n        /* \"#utility.yul\":802:924   */\n    tag_109:\n        /* \"#utility.yul\":956:962   */\n      dup3\n        /* \"#utility.yul\":943:963   */\n      calldataload\n        /* \"#utility.yul\":933:963   */\n      swap1\n      pop\n        /* \"#utility.yul\":986:1004   */\n      0xffffffffffffffff\n        /* \"#utility.yul\":978:984   */\n      dup2\n        /* \"#utility.yul\":975:1005   */\n      gt\n        /* \"#utility.yul\":972:1089   */\n      iszero\n      tag_111\n      jumpi\n        /* \"#utility.yul\":1008:1087   */\n      tag_112\n      tag_54\n      jump\t// in\n    tag_112:\n        /* \"#utility.yul\":972:1089   */\n    tag_111:\n        /* \"#utility.yul\":1122:1126   */\n      0x20\n        /* \"#utility.yul\":1114:1120   */\n      dup4\n        /* \"#utility.yul\":1110:1127   */\n      add\n        /* \"#utility.yul\":1098:1127   */\n      swap2\n      pop\n        /* \"#utility.yul\":1176:1179   */\n      dup4\n        /* \"#utility.yul\":1168:1172   */\n      0x01\n        /* \"#utility.yul\":1160:1166   */\n      dup3\n        /* \"#utility.yul\":1156:1173   */\n      mul\n        /* \"#utility.yul\":1146:1154   */\n      dup4\n        /* \"#utility.yul\":1142:1174   */\n      add\n        /* \"#utility.yul\":1139:1180   */\n      gt\n        /* \"#utility.yul\":1136:1264   */\n      iszero\n      tag_113\n      jumpi\n        /* \"#utility.yul\":1183:1262   */\n      tag_114\n      tag_55\n      jump\t// in\n    tag_114:\n        /* \"#utility.yul\":1136:1264   */\n    tag_113:\n        /* \"#utility.yul\":717:1270   */\n      swap3\n      pop\n      swap3\n      swap1\n      pop\n      jump\t// out\n        /* \"#utility.yul\":1276:1805   */\n    tag_9:\n        /* \"#utility.yul\":1347:1353   */\n      0x00\n        /* \"#utility.yul\":1355:1361   */\n      dup1\n        /* \"#utility.yul\":1404:1406   */\n      0x20\n        /* \"#utility.yul\":1392:1401   */\n      dup4\n        /* \"#utility.yul\":1383:1390   */\n      dup6\n        /* \"#utility.yul\":1379:1402   */\n      sub\n        /* \"#utility.yul\":1375:1407   */\n      slt\n        /* \"#utility.yul\":1372:1491   */\n      iszero\n      tag_116\n      jumpi\n        /* \"#utility.yul\":1410:1489   */\n      tag_117\n      tag_51\n      jump\t// in\n    tag_117:\n        /* \"#utility.yul\":1372:1491   */\n    tag_116:\n        /* \"#utility.yul\":1558:1559   */\n      0x00\n        /* \"#utility.yul\":1547:1556   */\n      dup4\n        /* \"#utility.yul\":1543:1560   */\n      add\n        /* \"#utility.yul\":1530:1561   */\n      calldataload\n        /* \"#utility.yul\":1588:1606   */\n      0xffffffffffffffff\n        /* \"#utility.yul\":1580:1586   */\n      dup2\n        /* \"#utility.yul\":1577:1607   */\n      gt\n        /* \"#utility.yul\":1574:1691   */\n      iszero\n      tag_118\n      jumpi\n        /* \"#utility.yul\":1610:1689   */\n      tag_119\n      tag_52\n      jump\t// in\n    tag_119:\n        /* \"#utility.yul\":1574:1691   */\n    tag_118:\n        /* \"#utility.yul\":1723:1788   */\n      tag_120\n        /* \"#utility.yul\":1780:1787   */\n      dup6\n        /* \"#utility.yul\":1771:1777   */\n      dup3\n        /* \"#utility.yul\":1760:1769   */\n      dup7\n        /* \"#utility.yul\":1756:1778   */\n      add\n        /* \"#utility.yul\":1723:1788   */\n      tag_56\n      jump\t// in\n    tag_120:\n        /* \"#utility.yul\":1705:1788   */\n      swap3\n      pop\n      swap3\n      pop\n        /* \"#utility.yul\":1501:1798   */\n      pop\n        /* \"#utility.yul\":1276:1805   */\n      swap3\n      pop\n      swap3\n      swap1\n      pop\n      jump\t// out\n        /* \"#utility.yul\":1811:1888   */\n    tag_57:\n        /* \"#utility.yul\":1848:1855   */\n      0x00\n        /* \"#utility.yul\":1877:1882   */\n      dup2\n        /* \"#utility.yul\":1866:1882   */\n      swap1\n      pop\n        /* \"#utility.yul\":1811:1888   */\n      swap2\n      swap1\n      pop\n      jump\t// out\n        /* \"#utility.yul\":1894:2016   */\n    tag_58:\n        /* \"#utility.yul\":1967:1991   */\n      tag_123\n        /* \"#utility.yul\":1985:1990   */\n      dup2\n        /* \"#utility.yul\":1967:1991   */\n      tag_57\n      jump\t// in\n    tag_123:\n        /* \"#utility.yul\":1960:1965   */\n      dup2\n        /* \"#utility.yul\":1957:1992   */\n      eq\n        /* \"#utility.yul\":1947:2010   */\n      tag_124\n      jumpi\n        /* \"#utility.yul\":2006:2007   */\n      0x00\n        /* \"#utility.yul\":2003:2004   */\n      dup1\n        /* \"#utility.yul\":1996:2008   */\n      revert\n        /* \"#utility.yul\":1947:2010   */\n    tag_124:\n        /* \"#utility.yul\":1894:2016   */\n      pop\n      jump\t// out\n        /* \"#utility.yul\":2022:2161   */\n    tag_59:\n        /* \"#utility.yul\":2068:2073   */\n      0x00\n        /* \"#utility.yul\":2106:2112   */\n      dup2\n        /* \"#utility.yul\":2093:2113   */\n      calldataload\n        /* \"#utility.yul\":2084:2113   */\n      swap1\n      pop\n        /* \"#utility.yul\":2122:2155   */\n      tag_126\n        /* \"#utility.yul\":2149:2154   */\n      dup2\n        /* \"#utility.yul\":2122:2155   */\n      tag_58\n      jump\t// in\n    tag_126:\n        /* \"#utility.yul\":2022:2161   */\n      swap3\n      swap2\n      pop\n      pop\n      jump\t// out\n        /* \"#utility.yul\":2167:2257   */\n    tag_60:\n        /* \"#utility.yul\":2201:2208   */\n      0x00\n        /* \"#utility.yul\":2244:2249   */\n      dup2\n        /* \"#utility.yul\":2237:2250   */\n      iszero\n        /* \"#utility.yul\":2230:2251   */\n      iszero\n        /* \"#utility.yul\":2219:2251   */\n      swap1\n      pop\n        /* \"#utility.yul\":2167:2257   */\n      swap2\n      swap1\n      pop\n      jump\t// out\n        /* \"#utility.yul\":2263:2379   */\n    tag_61:\n        /* \"#utility.yul\":2333:2354   */\n      tag_129\n        /* \"#utility.yul\":2348:2353   */\n      dup2\n        /* \"#utility.yul\":2333:2354   */\n      tag_60\n      jump\t// in\n    tag_129:\n        /* \"#utility.yul\":2326:2331   */\n      dup2\n        /* \"#utility.yul\":2323:2355   */\n      eq\n        /* \"#utility.yul\":2313:2373   */\n      tag_130\n      jumpi\n        /* \"#utility.yul\":2369:2370   */\n      0x00\n        /* \"#utility.yul\":2366:2367   */\n      dup1\n        /* \"#utility.yul\":2359:2371   */\n      revert\n        /* \"#utility.yul\":2313:2373   */\n    tag_130:\n        /* \"#utility.yul\":2263:2379   */\n      pop\n      jump\t// out\n        /* \"#utility.yul\":2385:2518   */\n    tag_62:\n        /* \"#utility.yul\":2428:2433   */\n      0x00\n        /* \"#utility.yul\":2466:2472   */\n      dup2\n        /* \"#utility.yul\":2453:2473   */\n      calldataload\n        /* \"#utility.yul\":2444:2473   */\n      swap1\n      pop\n        /* \"#utility.yul\":2482:2512   */\n      tag_132\n        /* \"#utility.yul\":2506:2511   */\n      dup2\n        /* \"#utility.yul\":2482:2512   */\n      tag_61\n      jump\t// in\n    tag_132:\n        /* \"#utility.yul\":2385:2518   */\n      swap3\n      swap2\n      pop\n      pop\n      jump\t// out\n        /* \"#utility.yul\":2524:2641   */\n    tag_63:\n        /* \"#utility.yul\":2633:2634   */\n      0x00\n        /* \"#utility.yul\":2630:2631   */\n      dup1\n        /* \"#utility.yul\":2623:2635   */\n      revert\n        /* \"#utility.yul\":2647:2749   */\n    tag_64:\n        /* \"#utility.yul\":2688:2694   */\n      0x00\n        /* \"#utility.yul\":2739:2741   */\n      0x1f\n        /* \"#utility.yul\":2735:2742   */\n      not\n        /* \"#utility.yul\":2730:2732   */\n      0x1f\n        /* \"#utility.yul\":2723:2728   */\n      dup4\n        /* \"#utility.yul\":2719:2733   */\n      add\n        /* \"#utility.yul\":2715:2743   */\n      and\n        /* \"#utility.yul\":2705:2743   */\n      swap1\n      pop\n        /* \"#utility.yul\":2647:2749   */\n      swap2\n      swap1\n      pop\n      jump\t// out\n        /* \"#utility.yul\":2755:2935   */\n    tag_65:\n        /* \"#utility.yul\":2803:2880   */\n      0x4e487b7100000000000000000000000000000000000000000000000000000000\n        /* \"#utility.yul\":2800:2801   */\n      0x00\n        /* \"#utility.yul\":2793:2881   */\n      mstore\n        /* \"#utility.yul\":2900:2904   */\n      0x41\n        /* \"#utility.yul\":2897:2898   */\n      0x04\n        /* \"#utility.yul\":2890:2905   */\n      mstore\n        /* \"#utility.yul\":2924:2928   */\n      0x24\n        /* \"#utility.yul\":2921:2922   */\n      0x00\n        /* \"#utility.yul\":2914:2929   */\n      revert\n        /* \"#utility.yul\":2941:3222   */\n    tag_66:\n        /* \"#utility.yul\":3024:3051   */\n      tag_137\n        /* \"#utility.yul\":3046:3050   */\n      dup3\n        /* \"#utility.yul\":3024:3051   */\n      tag_64\n      jump\t// in\n    tag_137:\n        /* \"#utility.yul\":3016:3022   */\n      dup2\n        /* \"#utility.yul\":3012:3052   */\n      add\n        /* \"#utility.yul\":3154:3160   */\n      dup2\n        /* \"#utility.yul\":3142:3152   */\n      dup2\n        /* \"#utility.yul\":3139:3161   */\n      lt\n        /* \"#utility.yul\":3118:3136   */\n      0xffffffffffffffff\n        /* \"#utility.yul\":3106:3116   */\n      dup3\n        /* \"#utility.yul\":3103:3137   */\n      gt\n        /* \"#utility.yul\":3100:3162   */\n      or\n        /* \"#utility.yul\":3097:3185   */\n      iszero\n      tag_138\n      jumpi\n        /* \"#utility.yul\":3165:3183   */\n      tag_139\n      tag_65\n      jump\t// in\n    tag_139:\n        /* \"#utility.yul\":3097:3185   */\n    tag_138:\n        /* \"#utility.yul\":3205:3215   */\n      dup1\n        /* \"#utility.yul\":3201:3203   */\n      0x40\n        /* \"#utility.yul\":3194:3216   */\n      mstore\n        /* \"#utility.yul\":2984:3222   */\n      pop\n        /* \"#utility.yul\":2941:3222   */\n      pop\n      pop\n      jump\t// out\n        /* \"#utility.yul\":3228:3357   */\n    tag_67:\n        /* \"#utility.yul\":3262:3268   */\n      0x00\n        /* \"#utility.yul\":3289:3309   */\n      tag_141\n      tag_50\n      jump\t// in\n    tag_141:\n        /* \"#utility.yul\":3279:3309   */\n      swap1\n      pop\n        /* \"#utility.yul\":3318:3351   */\n      tag_142\n        /* \"#utility.yul\":3346:3350   */\n      dup3\n        /* \"#utility.yul\":3338:3344   */\n      dup3\n        /* \"#utility.yul\":3318:3351   */\n      tag_66\n      jump\t// in\n    tag_142:\n        /* \"#utility.yul\":3228:3357   */\n      swap2\n      swap1\n      pop\n      jump\t// out\n        /* \"#utility.yul\":3363:3671   */\n    tag_68:\n        /* \"#utility.yul\":3425:3429   */\n      0x00\n        /* \"#utility.yul\":3515:3533   */\n      0xffffffffffffffff\n        /* \"#utility.yul\":3507:3513   */\n      dup3\n        /* \"#utility.yul\":3504:3534   */\n      gt\n        /* \"#utility.yul\":3501:3557   */\n      iszero\n      tag_144\n      jumpi\n        /* \"#utility.yul\":3537:3555   */\n      tag_145\n      tag_65\n      jump\t// in\n    tag_145:\n        /* \"#utility.yul\":3501:3557   */\n    tag_144:\n        /* \"#utility.yul\":3575:3604   */\n      tag_146\n        /* \"#utility.yul\":3597:3603   */\n      dup3\n        /* \"#utility.yul\":3575:3604   */\n      tag_64\n      jump\t// in\n    tag_146:\n        /* \"#utility.yul\":3567:3604   */\n      swap1\n      pop\n        /* \"#utility.yul\":3659:3663   */\n      0x20\n        /* \"#utility.yul\":3653:3657   */\n      dup2\n        /* \"#utility.yul\":3649:3664   */\n      add\n        /* \"#utility.yul\":3641:3664   */\n      swap1\n      pop\n        /* \"#utility.yul\":3363:3671   */\n      swap2\n      swap1\n      pop\n      jump\t// out\n        /* \"#utility.yul\":3677:3823   */\n    tag_69:\n        /* \"#utility.yul\":3774:3780   */\n      dup3\n        /* \"#utility.yul\":3769:3772   */\n      dup2\n        /* \"#utility.yul\":3764:3767   */\n      dup4\n        /* \"#utility.yul\":3751:3781   */\n      calldatacopy\n        /* \"#utility.yul\":3815:3816   */\n      0x00\n        /* \"#utility.yul\":3806:3812   */\n      dup4\n        /* \"#utility.yul\":3801:3804   */\n      dup4\n        /* \"#utility.yul\":3797:3813   */\n      add\n        /* \"#utility.yul\":3790:3817   */\n      mstore\n        /* \"#utility.yul\":3677:3823   */\n      pop\n      pop\n      pop\n      jump\t// out\n        /* \"#utility.yul\":3829:4254   */\n    tag_70:\n        /* \"#utility.yul\":3907:3912   */\n      0x00\n        /* \"#utility.yul\":3932:3998   */\n      tag_149\n        /* \"#utility.yul\":3948:3997   */\n      tag_150\n        /* \"#utility.yul\":3990:3996   */\n      dup5\n        /* \"#utility.yul\":3948:3997   */\n      tag_68\n      jump\t// in\n    tag_150:\n        /* \"#utility.yul\":3932:3998   */\n      tag_67\n      jump\t// in\n    tag_149:\n        /* \"#utility.yul\":3923:3998   */\n      swap1\n      pop\n        /* \"#utility.yul\":4021:4027   */\n      dup3\n        /* \"#utility.yul\":4014:4019   */\n      dup2\n        /* \"#utility.yul\":4007:4028   */\n      mstore\n        /* \"#utility.yul\":4059:4063   */\n      0x20\n        /* \"#utility.yul\":4052:4057   */\n      dup2\n        /* \"#utility.yul\":4048:4064   */\n      add\n        /* \"#utility.yul\":4097:4100   */\n      dup5\n        /* \"#utility.yul\":4088:4094   */\n      dup5\n        /* \"#utility.yul\":4083:4086   */\n      dup5\n        /* \"#utility.yul\":4079:4095   */\n      add\n        /* \"#utility.yul\":4076:4101   */\n      gt\n        /* \"#utility.yul\":4073:4185   */\n      iszero\n      tag_151\n      jumpi\n        /* \"#utility.yul\":4104:4183   */\n      tag_152\n      tag_63\n      jump\t// in\n    tag_152:\n        /* \"#utility.yul\":4073:4185   */\n    tag_151:\n        /* \"#utility.yul\":4194:4248   */\n      tag_153\n        /* \"#utility.yul\":4241:4247   */\n      dup5\n        /* \"#utility.yul\":4236:4239   */\n      dup3\n        /* \"#utility.yul\":4231:4234   */\n      dup6\n        /* \"#utility.yul\":4194:4248   */\n      tag_69\n      jump\t// in\n    tag_153:\n        /* \"#utility.yul\":3913:4254   */\n      pop\n        /* \"#utility.yul\":3829:4254   */\n      swap4\n      swap3\n      pop\n      pop\n      pop\n      jump\t// out\n        /* \"#utility.yul\":4274:4614   */\n    tag_71:\n        /* \"#utility.yul\":4330:4335   */\n      0x00\n        /* \"#utility.yul\":4379:4382   */\n      dup3\n        /* \"#utility.yul\":4372:4376   */\n      0x1f\n        /* \"#utility.yul\":4364:4370   */\n      dup4\n        /* \"#utility.yul\":4360:4377   */\n      add\n        /* \"#utility.yul\":4356:4383   */\n      slt\n        /* \"#utility.yul\":4346:4468   */\n      tag_155\n      jumpi\n        /* \"#utility.yul\":4387:4466   */\n      tag_156\n      tag_53\n      jump\t// in\n    tag_156:\n        /* \"#utility.yul\":4346:4468   */\n    tag_155:\n        /* \"#utility.yul\":4504:4510   */\n      dup2\n        /* \"#utility.yul\":4491:4511   */\n      calldataload\n        /* \"#utility.yul\":4529:4608   */\n      tag_157\n        /* \"#utility.yul\":4604:4607   */\n      dup5\n        /* \"#utility.yul\":4596:4602   */\n      dup3\n        /* \"#utility.yul\":4589:4593   */\n      0x20\n        /* \"#utility.yul\":4581:4587   */\n      dup7\n        /* \"#utility.yul\":4577:4594   */\n      add\n        /* \"#utility.yul\":4529:4608   */\n      tag_70\n      jump\t// in\n    tag_157:\n        /* \"#utility.yul\":4520:4608   */\n      swap2\n      pop\n        /* \"#utility.yul\":4336:4614   */\n      pop\n        /* \"#utility.yul\":4274:4614   */\n      swap3\n      swap2\n      pop\n      pop\n      jump\t// out\n        /* \"#utility.yul\":4620:5413   */\n    tag_13:\n        /* \"#utility.yul\":4704:4710   */\n      0x00\n        /* \"#utility.yul\":4712:4718   */\n      dup1\n        /* \"#utility.yul\":4720:4726   */\n      0x00\n        /* \"#utility.yul\":4769:4771   */\n      0x60\n        /* \"#utility.yul\":4757:4766   */\n      dup5\n        /* \"#utility.yul\":4748:4755   */\n      dup7\n        /* \"#utility.yul\":4744:4767   */\n      sub\n        /* \"#utility.yul\":4740:4772   */\n      slt\n        /* \"#utility.yul\":4737:4856   */\n      iszero\n      tag_159\n      jumpi\n        /* \"#utility.yul\":4775:4854   */\n      tag_160\n      tag_51\n      jump\t// in\n    tag_160:\n        /* \"#utility.yul\":4737:4856   */\n    tag_159:\n        /* \"#utility.yul\":4895:4896   */\n      0x00\n        /* \"#utility.yul\":4920:4973   */\n      tag_161\n        /* \"#utility.yul\":4965:4972   */\n      dup7\n        /* \"#utility.yul\":4956:4962   */\n      dup3\n        /* \"#utility.yul\":4945:4954   */\n      dup8\n        /* \"#utility.yul\":4941:4963   */\n      add\n        /* \"#utility.yul\":4920:4973   */\n      tag_59\n      jump\t// in\n    tag_161:\n        /* \"#utility.yul\":4910:4973   */\n      swap4\n      pop\n        /* \"#utility.yul\":4866:4983   */\n      pop\n        /* \"#utility.yul\":5022:5024   */\n      0x20\n        /* \"#utility.yul\":5048:5098   */\n      tag_162\n        /* \"#utility.yul\":5090:5097   */\n      dup7\n        /* \"#utility.yul\":5081:5087   */\n      dup3\n        /* \"#utility.yul\":5070:5079   */\n      dup8\n        /* \"#utility.yul\":5066:5088   */\n      add\n        /* \"#utility.yul\":5048:5098   */\n      tag_62\n      jump\t// in\n    tag_162:\n        /* \"#utility.yul\":5038:5098   */\n      swap3\n      pop\n        /* \"#utility.yul\":4993:5108   */\n      pop\n        /* \"#utility.yul\":5175:5177   */\n      0x40\n        /* \"#utility.yul\":5164:5173   */\n      dup5\n        /* \"#utility.yul\":5160:5178   */\n      add\n        /* \"#utility.yul\":5147:5179   */\n      calldataload\n        /* \"#utility.yul\":5206:5224   */\n      0xffffffffffffffff\n        /* \"#utility.yul\":5198:5204   */\n      dup2\n        /* \"#utility.yul\":5195:5225   */\n      gt\n        /* \"#utility.yul\":5192:5309   */\n      iszero\n      tag_163\n      jumpi\n        /* \"#utility.yul\":5228:5307   */\n      tag_164\n      tag_52\n      jump\t// in\n    tag_164:\n        /* \"#utility.yul\":5192:5309   */\n    tag_163:\n        /* \"#utility.yul\":5333:5396   */\n      tag_165\n        /* \"#utility.yul\":5388:5395   */\n      dup7\n        /* \"#utility.yul\":5379:5385   */\n      dup3\n        /* \"#utility.yul\":5368:5377   */\n      dup8\n        /* \"#utility.yul\":5364:5386   */\n      add\n        /* \"#utility.yul\":5333:5396   */\n      tag_71\n      jump\t// in\n    tag_165:\n        /* \"#utility.yul\":5323:5396   */\n      swap2\n      pop\n        /* \"#utility.yul\":5118:5406   */\n      pop\n        /* \"#utility.yul\":4620:5413   */\n      swap3\n      pop\n      swap3\n      pop\n      swap3\n      jump\t// out\n        /* \"#utility.yul\":5419:5557   */\n    tag_72:\n        /* \"#utility.yul\":5510:5516   */\n      0x00\n        /* \"#utility.yul\":5544:5549   */\n      dup2\n        /* \"#utility.yul\":5538:5550   */\n      mload\n        /* \"#utility.yul\":5528:5550   */\n      swap1\n      pop\n        /* \"#utility.yul\":5419:5557   */\n      swap2\n      swap1\n      pop\n      jump\t// out\n        /* \"#utility.yul\":5563:5771   */\n    tag_73:\n        /* \"#utility.yul\":5686:5697   */\n      0x00\n        /* \"#utility.yul\":5720:5726   */\n      dup3\n        /* \"#utility.yul\":5715:5718   */\n      dup3\n        /* \"#utility.yul\":5708:5727   */\n      mstore\n        /* \"#utility.yul\":5760:5764   */\n      0x20\n        /* \"#utility.yul\":5755:5758   */\n      dup3\n        /* \"#utility.yul\":5751:5765   */\n      add\n        /* \"#utility.yul\":5736:5765   */\n      swap1\n      pop\n        /* \"#utility.yul\":5563:5771   */\n      swap3\n      swap2\n      pop\n      pop\n      jump\t// out\n        /* \"#utility.yul\":5777:5933   */\n    tag_74:\n        /* \"#utility.yul\":5868:5872   */\n      0x00\n        /* \"#utility.yul\":5891:5894   */\n      dup2\n        /* \"#utility.yul\":5883:5894   */\n      swap1\n      pop\n        /* \"#utility.yul\":5921:5925   */\n      0x20\n        /* \"#utility.yul\":5916:5919   */\n      dup3\n        /* \"#utility.yul\":5912:5926   */\n      add\n        /* \"#utility.yul\":5904:5926   */\n      swap1\n      pop\n        /* \"#utility.yul\":5777:5933   */\n      swap2\n      swap1\n      pop\n      jump\t// out\n        /* \"#utility.yul\":5939:6047   */\n    tag_75:\n        /* \"#utility.yul\":6016:6040   */\n      tag_170\n        /* \"#utility.yul\":6034:6039   */\n      dup2\n        /* \"#utility.yul\":6016:6040   */\n      tag_57\n      jump\t// in\n    tag_170:\n        /* \"#utility.yul\":6011:6014   */\n      dup3\n        /* \"#utility.yul\":6004:6041   */\n      mstore\n        /* \"#utility.yul\":5939:6047   */\n      pop\n      pop\n      jump\t// out\n        /* \"#utility.yul\":6053:6152   */\n    tag_76:\n        /* \"#utility.yul\":6105:6111   */\n      0x00\n        /* \"#utility.yul\":6139:6144   */\n      dup2\n        /* \"#utility.yul\":6133:6145   */\n      mload\n        /* \"#utility.yul\":6123:6145   */\n      swap1\n      pop\n        /* \"#utility.yul\":6053:6152   */\n      swap2\n      swap1\n      pop\n      jump\t// out\n        /* \"#utility.yul\":6158:6317   */\n    tag_77:\n        /* \"#utility.yul\":6232:6243   */\n      0x00\n        /* \"#utility.yul\":6266:6272   */\n      dup3\n        /* \"#utility.yul\":6261:6264   */\n      dup3\n        /* \"#utility.yul\":6254:6273   */\n      mstore\n        /* \"#utility.yul\":6306:6310   */\n      0x20\n        /* \"#utility.yul\":6301:6304   */\n      dup3\n        /* \"#utility.yul\":6297:6311   */\n      add\n        /* \"#utility.yul\":6282:6311   */\n      swap1\n      pop\n        /* \"#utility.yul\":6158:6317   */\n      swap3\n      swap2\n      pop\n      pop\n      jump\t// out\n        /* \"#utility.yul\":6323:6569   */\n    tag_78:\n        /* \"#utility.yul\":6404:6405   */\n      0x00\n        /* \"#utility.yul\":6414:6527   */\n    tag_174:\n        /* \"#utility.yul\":6428:6434   */\n      dup4\n        /* \"#utility.yul\":6425:6426   */\n      dup2\n        /* \"#utility.yul\":6422:6435   */\n      lt\n        /* \"#utility.yul\":6414:6527   */\n      iszero\n      tag_176\n      jumpi\n        /* \"#utility.yul\":6513:6514   */\n      dup1\n        /* \"#utility.yul\":6508:6511   */\n      dup3\n        /* \"#utility.yul\":6504:6515   */\n      add\n        /* \"#utility.yul\":6498:6516   */\n      mload\n        /* \"#utility.yul\":6494:6495   */\n      dup2\n        /* \"#utility.yul\":6489:6492   */\n      dup5\n        /* \"#utility.yul\":6485:6496   */\n      add\n        /* \"#utility.yul\":6478:6517   */\n      mstore\n        /* \"#utility.yul\":6450:6452   */\n      0x20\n        /* \"#utility.yul\":6447:6448   */\n      dup2\n        /* \"#utility.yul\":6443:6453   */\n      add\n        /* \"#utility.yul\":6438:6453   */\n      swap1\n      pop\n        /* \"#utility.yul\":6414:6527   */\n      jump(tag_174)\n    tag_176:\n        /* \"#utility.yul\":6561:6562   */\n      0x00\n        /* \"#utility.yul\":6552:6558   */\n      dup5\n        /* \"#utility.yul\":6547:6550   */\n      dup5\n        /* \"#utility.yul\":6543:6559   */\n      add\n        /* \"#utility.yul\":6536:6563   */\n      mstore\n        /* \"#utility.yul\":6385:6569   */\n      pop\n        /* \"#utility.yul\":6323:6569   */\n      pop\n      pop\n      pop\n      jump\t// out\n        /* \"#utility.yul\":6575:6932   */\n    tag_79:\n        /* \"#utility.yul\":6653:6656   */\n      0x00\n        /* \"#utility.yul\":6681:6720   */\n      tag_178\n        /* \"#utility.yul\":6714:6719   */\n      dup3\n        /* \"#utility.yul\":6681:6720   */\n      tag_76\n      jump\t// in\n    tag_178:\n        /* \"#utility.yul\":6736:6797   */\n      tag_179\n        /* \"#utility.yul\":6790:6796   */\n      dup2\n        /* \"#utility.yul\":6785:6788   */\n      dup6\n        /* \"#utility.yul\":6736:6797   */\n      tag_77\n      jump\t// in\n    tag_179:\n        /* \"#utility.yul\":6729:6797   */\n      swap4\n      pop\n        /* \"#utility.yul\":6806:6871   */\n      tag_180\n        /* \"#utility.yul\":6864:6870   */\n      dup2\n        /* \"#utility.yul\":6859:6862   */\n      dup6\n        /* \"#utility.yul\":6852:6856   */\n      0x20\n        /* \"#utility.yul\":6845:6850   */\n      dup7\n        /* \"#utility.yul\":6841:6857   */\n      add\n        /* \"#utility.yul\":6806:6871   */\n      tag_78\n      jump\t// in\n    tag_180:\n        /* \"#utility.yul\":6896:6925   */\n      tag_181\n        /* \"#utility.yul\":6918:6924   */\n      dup2\n        /* \"#utility.yul\":6896:6925   */\n      tag_64\n      jump\t// in\n    tag_181:\n        /* \"#utility.yul\":6891:6894   */\n      dup5\n        /* \"#utility.yul\":6887:6926   */\n      add\n        /* \"#utility.yul\":6880:6926   */\n      swap2\n      pop\n        /* \"#utility.yul\":6657:6932   */\n      pop\n        /* \"#utility.yul\":6575:6932   */\n      swap3\n      swap2\n      pop\n      pop\n      jump\t// out\n        /* \"#utility.yul\":6938:7037   */\n    tag_80:\n        /* \"#utility.yul\":7009:7030   */\n      tag_183\n        /* \"#utility.yul\":7024:7029   */\n      dup2\n        /* \"#utility.yul\":7009:7030   */\n      tag_60\n      jump\t// in\n    tag_183:\n        /* \"#utility.yul\":7004:7007   */\n      dup3\n        /* \"#utility.yul\":6997:7031   */\n      mstore\n        /* \"#utility.yul\":6938:7037   */\n      pop\n      pop\n      jump\t// out\n        /* \"#utility.yul\":7111:8050   */\n    tag_81:\n        /* \"#utility.yul\":7218:7221   */\n      0x00\n        /* \"#utility.yul\":7254:7258   */\n      0x80\n        /* \"#utility.yul\":7249:7252   */\n      dup4\n        /* \"#utility.yul\":7245:7259   */\n      add\n        /* \"#utility.yul\":7339:7343   */\n      0x00\n        /* \"#utility.yul\":7332:7337   */\n      dup4\n        /* \"#utility.yul\":7328:7344   */\n      add\n        /* \"#utility.yul\":7322:7345   */\n      mload\n        /* \"#utility.yul\":7358:7421   */\n      tag_185\n        /* \"#utility.yul\":7415:7419   */\n      0x00\n        /* \"#utility.yul\":7410:7413   */\n      dup7\n        /* \"#utility.yul\":7406:7420   */\n      add\n        /* \"#utility.yul\":7392:7404   */\n      dup3\n        /* \"#utility.yul\":7358:7421   */\n      tag_75\n      jump\t// in\n    tag_185:\n        /* \"#utility.yul\":7269:7431   */\n      pop\n        /* \"#utility.yul\":7517:7521   */\n      0x20\n        /* \"#utility.yul\":7510:7515   */\n      dup4\n        /* \"#utility.yul\":7506:7522   */\n      add\n        /* \"#utility.yul\":7500:7523   */\n      mload\n        /* \"#utility.yul\":7570:7573   */\n      dup5\n        /* \"#utility.yul\":7564:7568   */\n      dup3\n        /* \"#utility.yul\":7560:7574   */\n      sub\n        /* \"#utility.yul\":7553:7557   */\n      0x20\n        /* \"#utility.yul\":7548:7551   */\n      dup7\n        /* \"#utility.yul\":7544:7558   */\n      add\n        /* \"#utility.yul\":7537:7575   */\n      mstore\n        /* \"#utility.yul\":7596:7669   */\n      tag_186\n        /* \"#utility.yul\":7664:7668   */\n      dup3\n        /* \"#utility.yul\":7650:7662   */\n      dup3\n        /* \"#utility.yul\":7596:7669   */\n      tag_79\n      jump\t// in\n    tag_186:\n        /* \"#utility.yul\":7588:7669   */\n      swap2\n      pop\n        /* \"#utility.yul\":7441:7680   */\n      pop\n        /* \"#utility.yul\":7764:7768   */\n      0x40\n        /* \"#utility.yul\":7757:7762   */\n      dup4\n        /* \"#utility.yul\":7753:7769   */\n      add\n        /* \"#utility.yul\":7747:7770   */\n      mload\n        /* \"#utility.yul\":7783:7840   */\n      tag_187\n        /* \"#utility.yul\":7834:7838   */\n      0x40\n        /* \"#utility.yul\":7829:7832   */\n      dup7\n        /* \"#utility.yul\":7825:7839   */\n      add\n        /* \"#utility.yul\":7811:7823   */\n      dup3\n        /* \"#utility.yul\":7783:7840   */\n      tag_80\n      jump\t// in\n    tag_187:\n        /* \"#utility.yul\":7690:7850   */\n      pop\n        /* \"#utility.yul\":7937:7941   */\n      0x60\n        /* \"#utility.yul\":7930:7935   */\n      dup4\n        /* \"#utility.yul\":7926:7942   */\n      add\n        /* \"#utility.yul\":7920:7943   */\n      mload\n        /* \"#utility.yul\":7956:8013   */\n      tag_188\n        /* \"#utility.yul\":8007:8011   */\n      0x60\n        /* \"#utility.yul\":8002:8005   */\n      dup7\n        /* \"#utility.yul\":7998:8012   */\n      add\n        /* \"#utility.yul\":7984:7996   */\n      dup3\n        /* \"#utility.yul\":7956:8013   */\n      tag_80\n      jump\t// in\n    tag_188:\n        /* \"#utility.yul\":7860:8023   */\n      pop\n        /* \"#utility.yul\":8040:8044   */\n      dup1\n        /* \"#utility.yul\":8033:8044   */\n      swap2\n      pop\n        /* \"#utility.yul\":7223:8050   */\n      pop\n        /* \"#utility.yul\":7111:8050   */\n      swap3\n      swap2\n      pop\n      pop\n      jump\t// out\n        /* \"#utility.yul\":8056:8308   */\n    tag_82:\n        /* \"#utility.yul\":8173:8183   */\n      0x00\n        /* \"#utility.yul\":8208:8302   */\n      tag_190\n        /* \"#utility.yul\":8298:8301   */\n      dup4\n        /* \"#utility.yul\":8290:8296   */\n      dup4\n        /* \"#utility.yul\":8208:8302   */\n      tag_81\n      jump\t// in\n    tag_190:\n        /* \"#utility.yul\":8194:8302   */\n      swap1\n      pop\n        /* \"#utility.yul\":8056:8308   */\n      swap3\n      swap2\n      pop\n      pop\n      jump\t// out\n        /* \"#utility.yul\":8314:8451   */\n    tag_83:\n        /* \"#utility.yul\":8408:8412   */\n      0x00\n        /* \"#utility.yul\":8440:8444   */\n      0x20\n        /* \"#utility.yul\":8435:8438   */\n      dup3\n        /* \"#utility.yul\":8431:8445   */\n      add\n        /* \"#utility.yul\":8423:8445   */\n      swap1\n      pop\n        /* \"#utility.yul\":8314:8451   */\n      swap2\n      swap1\n      pop\n      jump\t// out\n        /* \"#utility.yul\":8529:9632   */\n    tag_84:\n        /* \"#utility.yul\":8696:8699   */\n      0x00\n        /* \"#utility.yul\":8725:8803   */\n      tag_193\n        /* \"#utility.yul\":8797:8802   */\n      dup3\n        /* \"#utility.yul\":8725:8803   */\n      tag_72\n      jump\t// in\n    tag_193:\n        /* \"#utility.yul\":8819:8929   */\n      tag_194\n        /* \"#utility.yul\":8922:8928   */\n      dup2\n        /* \"#utility.yul\":8917:8920   */\n      dup6\n        /* \"#utility.yul\":8819:8929   */\n      tag_73\n      jump\t// in\n    tag_194:\n        /* \"#utility.yul\":8812:8929   */\n      swap4\n      pop\n        /* \"#utility.yul\":8955:8958   */\n      dup4\n        /* \"#utility.yul\":9000:9004   */\n      0x20\n        /* \"#utility.yul\":8992:8998   */\n      dup3\n        /* \"#utility.yul\":8988:9005   */\n      mul\n        /* \"#utility.yul\":8983:8986   */\n      dup6\n        /* \"#utility.yul\":8979:9006   */\n      add\n        /* \"#utility.yul\":9030:9110   */\n      tag_195\n        /* \"#utility.yul\":9104:9109   */\n      dup6\n        /* \"#utility.yul\":9030:9110   */\n      tag_74\n      jump\t// in\n    tag_195:\n        /* \"#utility.yul\":9133:9140   */\n      dup1\n        /* \"#utility.yul\":9164:9165   */\n      0x00\n        /* \"#utility.yul\":9149:9587   */\n    tag_196:\n        /* \"#utility.yul\":9174:9180   */\n      dup6\n        /* \"#utility.yul\":9171:9172   */\n      dup2\n        /* \"#utility.yul\":9168:9181   */\n      lt\n        /* \"#utility.yul\":9149:9587   */\n      iszero\n      tag_198\n      jumpi\n        /* \"#utility.yul\":9245:9254   */\n      dup5\n        /* \"#utility.yul\":9239:9243   */\n      dup5\n        /* \"#utility.yul\":9235:9255   */\n      sub\n        /* \"#utility.yul\":9230:9233   */\n      dup10\n        /* \"#utility.yul\":9223:9256   */\n      mstore\n        /* \"#utility.yul\":9296:9302   */\n      dup2\n        /* \"#utility.yul\":9290:9303   */\n      mload\n        /* \"#utility.yul\":9324:9436   */\n      tag_199\n        /* \"#utility.yul\":9431:9435   */\n      dup6\n        /* \"#utility.yul\":9416:9429   */\n      dup3\n        /* \"#utility.yul\":9324:9436   */\n      tag_82\n      jump\t// in\n    tag_199:\n        /* \"#utility.yul\":9316:9436   */\n      swap5\n      pop\n        /* \"#utility.yul\":9459:9543   */\n      tag_200\n        /* \"#utility.yul\":9536:9542   */\n      dup4\n        /* \"#utility.yul\":9459:9543   */\n      tag_83\n      jump\t// in\n    tag_200:\n        /* \"#utility.yul\":9449:9543   */\n      swap3\n      pop\n        /* \"#utility.yul\":9572:9576   */\n      0x20\n        /* \"#utility.yul\":9567:9570   */\n      dup11\n        /* \"#utility.yul\":9563:9577   */\n      add\n        /* \"#utility.yul\":9556:9577   */\n      swap10\n      pop\n        /* \"#utility.yul\":9209:9587   */\n      pop\n        /* \"#utility.yul\":9196:9197   */\n      0x01\n        /* \"#utility.yul\":9193:9194   */\n      dup2\n        /* \"#utility.yul\":9189:9198   */\n      add\n        /* \"#utility.yul\":9184:9198   */\n      swap1\n      pop\n        /* \"#utility.yul\":9149:9587   */\n      jump(tag_196)\n    tag_198:\n        /* \"#utility.yul\":9153:9167   */\n      pop\n        /* \"#utility.yul\":9603:9607   */\n      dup3\n        /* \"#utility.yul\":9596:9607   */\n      swap8\n      pop\n        /* \"#utility.yul\":9623:9626   */\n      dup8\n        /* \"#utility.yul\":9616:9626   */\n      swap6\n      pop\n        /* \"#utility.yul\":8701:9632   */\n      pop\n      pop\n      pop\n      pop\n      pop\n        /* \"#utility.yul\":8529:9632   */\n      swap3\n      swap2\n      pop\n      pop\n      jump\t// out\n        /* \"#utility.yul\":9638:10107   */\n    tag_18:\n        /* \"#utility.yul\":9829:9833   */\n      0x00\n        /* \"#utility.yul\":9867:9869   */\n      0x20\n        /* \"#utility.yul\":9856:9865   */\n      dup3\n        /* \"#utility.yul\":9852:9870   */\n      add\n        /* \"#utility.yul\":9844:9870   */\n      swap1\n      pop\n        /* \"#utility.yul\":9916:9925   */\n      dup2\n        /* \"#utility.yul\":9910:9914   */\n      dup2\n        /* \"#utility.yul\":9906:9926   */\n      sub\n        /* \"#utility.yul\":9902:9903   */\n      0x00\n        /* \"#utility.yul\":9891:9900   */\n      dup4\n        /* \"#utility.yul\":9887:9904   */\n      add\n        /* \"#utility.yul\":9880:9927   */\n      mstore\n        /* \"#utility.yul\":9944:10100   */\n      tag_202\n        /* \"#utility.yul\":10095:10099   */\n      dup2\n        /* \"#utility.yul\":10086:10092   */\n      dup5\n        /* \"#utility.yul\":9944:10100   */\n      tag_84\n      jump\t// in\n    tag_202:\n        /* \"#utility.yul\":9936:10100   */\n      swap1\n      pop\n        /* \"#utility.yul\":9638:10107   */\n      swap3\n      swap2\n      pop\n      pop\n      jump\t// out\n        /* \"#utility.yul\":10113:10442   */\n    tag_21:\n        /* \"#utility.yul\":10172:10178   */\n      0x00\n        /* \"#utility.yul\":10221:10223   */\n      0x20\n        /* \"#utility.yul\":10209:10218   */\n      dup3\n        /* \"#utility.yul\":10200:10207   */\n      dup5\n        /* \"#utility.yul\":10196:10219   */\n      sub\n        /* \"#utility.yul\":10192:10224   */\n      slt\n        /* \"#utility.yul\":10189:10308   */\n      iszero\n      tag_204\n      jumpi\n        /* \"#utility.yul\":10227:10306   */\n      tag_205\n      tag_51\n      jump\t// in\n    tag_205:\n        /* \"#utility.yul\":10189:10308   */\n    tag_204:\n        /* \"#utility.yul\":10347:10348   */\n      0x00\n        /* \"#utility.yul\":10372:10425   */\n      tag_206\n        /* \"#utility.yul\":10417:10424   */\n      dup5\n        /* \"#utility.yul\":10408:10414   */\n      dup3\n        /* \"#utility.yul\":10397:10406   */\n      dup6\n        /* \"#utility.yul\":10393:10415   */\n      add\n        /* \"#utility.yul\":10372:10425   */\n      tag_59\n      jump\t// in\n    tag_206:\n        /* \"#utility.yul\":10362:10425   */\n      swap2\n      pop\n        /* \"#utility.yul\":10318:10435   */\n      pop\n        /* \"#utility.yul\":10113:10442   */\n      swap3\n      swap2\n      pop\n      pop\n      jump\t// out\n        /* \"#utility.yul\":10448:10628   */\n    tag_85:\n        /* \"#utility.yul\":10496:10573   */\n      0x4e487b7100000000000000000000000000000000000000000000000000000000\n        /* \"#utility.yul\":10493:10494   */\n      0x00\n        /* \"#utility.yul\":10486:10574   */\n      mstore\n        /* \"#utility.yul\":10593:10597   */\n      0x22\n        /* \"#utility.yul\":10590:10591   */\n      0x04\n        /* \"#utility.yul\":10583:10598   */\n      mstore\n        /* \"#utility.yul\":10617:10621   */\n      0x24\n        /* \"#utility.yul\":10614:10615   */\n      0x00\n        /* \"#utility.yul\":10607:10622   */\n      revert\n        /* \"#utility.yul\":10634:10954   */\n    tag_41:\n        /* \"#utility.yul\":10678:10684   */\n      0x00\n        /* \"#utility.yul\":10715:10716   */\n      0x02\n        /* \"#utility.yul\":10709:10713   */\n      dup3\n        /* \"#utility.yul\":10705:10717   */\n      div\n        /* \"#utility.yul\":10695:10717   */\n      swap1\n      pop\n        /* \"#utility.yul\":10762:10763   */\n      0x01\n        /* \"#utility.yul\":10756:10760   */\n      dup3\n        /* \"#utility.yul\":10752:10764   */\n      and\n        /* \"#utility.yul\":10783:10801   */\n      dup1\n        /* \"#utility.yul\":10773:10854   */\n      tag_209\n      jumpi\n        /* \"#utility.yul\":10839:10843   */\n      0x7f\n        /* \"#utility.yul\":10831:10837   */\n      dup3\n        /* \"#utility.yul\":10827:10844   */\n      and\n        /* \"#utility.yul\":10817:10844   */\n      swap2\n      pop\n        /* \"#utility.yul\":10773:10854   */\n    tag_209:\n        /* \"#utility.yul\":10901:10903   */\n      0x20\n        /* \"#utility.yul\":10893:10899   */\n      dup3\n        /* \"#utility.yul\":10890:10904   */\n      lt\n        /* \"#utility.yul\":10870:10888   */\n      dup2\n        /* \"#utility.yul\":10867:10905   */\n      sub\n        /* \"#utility.yul\":10864:10948   */\n      tag_210\n      jumpi\n        /* \"#utility.yul\":10920:10938   */\n      tag_211\n      tag_85\n      jump\t// in\n    tag_211:\n        /* \"#utility.yul\":10864:10948   */\n    tag_210:\n        /* \"#utility.yul\":10685:10954   */\n      pop\n        /* \"#utility.yul\":10634:10954   */\n      swap2\n      swap1\n      pop\n      jump\t// out\n        /* \"#utility.yul\":10960:11101   */\n    tag_86:\n        /* \"#utility.yul\":11009:11013   */\n      0x00\n        /* \"#utility.yul\":11032:11035   */\n      dup2\n        /* \"#utility.yul\":11024:11035   */\n      swap1\n      pop\n        /* \"#utility.yul\":11055:11058   */\n      dup2\n        /* \"#utility.yul\":11052:11053   */\n      0x00\n        /* \"#utility.yul\":11045:11059   */\n      mstore\n        /* \"#utility.yul\":11089:11093   */\n      0x20\n        /* \"#utility.yul\":11086:11087   */\n      0x00\n        /* \"#utility.yul\":11076:11094   */\n      keccak256\n        /* \"#utility.yul\":11068:11094   */\n      swap1\n      pop\n        /* \"#utility.yul\":10960:11101   */\n      swap2\n      swap1\n      pop\n      jump\t// out\n        /* \"#utility.yul\":11107:11200   */\n    tag_87:\n        /* \"#utility.yul\":11144:11150   */\n      0x00\n        /* \"#utility.yul\":11191:11193   */\n      0x20\n        /* \"#utility.yul\":11186:11188   */\n      0x1f\n        /* \"#utility.yul\":11179:11184   */\n      dup4\n        /* \"#utility.yul\":11175:11189   */\n      add\n        /* \"#utility.yul\":11171:11194   */\n      div\n        /* \"#utility.yul\":11161:11194   */\n      swap1\n      pop\n        /* \"#utility.yul\":11107:11200   */\n      swap2\n      swap1\n      pop\n      jump\t// out\n        /* \"#utility.yul\":11206:11313   */\n    tag_88:\n        /* \"#utility.yul\":11250:11258   */\n      0x00\n        /* \"#utility.yul\":11300:11305   */\n      dup3\n        /* \"#utility.yul\":11294:11298   */\n      dup3\n        /* \"#utility.yul\":11290:11306   */\n      shl\n        /* \"#utility.yul\":11269:11306   */\n      swap1\n      pop\n        /* \"#utility.yul\":11206:11313   */\n      swap3\n      swap2\n      pop\n      pop\n      jump\t// out\n        /* \"#utility.yul\":11319:11712   */\n    tag_89:\n        /* \"#utility.yul\":11388:11394   */\n      0x00\n        /* \"#utility.yul\":11438:11439   */\n      0x08\n        /* \"#utility.yul\":11426:11436   */\n      dup4\n        /* \"#utility.yul\":11422:11440   */\n      mul\n        /* \"#utility.yul\":11461:11558   */\n      tag_216\n        /* \"#utility.yul\":11491:11557   */\n      0xffffffffffffffffffffffffffffffffffffffffffffffffffffffffffffffff\n        /* \"#utility.yul\":11480:11489   */\n      dup3\n        /* \"#utility.yul\":11461:11558   */\n      tag_88\n      jump\t// in\n    tag_216:\n        /* \"#utility.yul\":11579:11618   */\n      tag_217\n        /* \"#utility.yul\":11609:11617   */\n      dup7\n        /* \"#utility.yul\":11598:11607   */\n      dup4\n        /* \"#utility.yul\":11579:11618   */\n      tag_88\n      jump\t// in\n    tag_217:\n        /* \"#utility.yul\":11567:11618   */\n      swap6\n      pop\n        /* \"#utility.yul\":11651:11655   */\n      dup1\n        /* \"#utility.yul\":11647:11656   */\n      not\n        /* \"#utility.yul\":11640:11645   */\n      dup5\n        /* \"#utility.yul\":11636:11657   */\n      and\n        /* \"#utility.yul\":11627:11657   */\n      swap4\n      pop\n        /* \"#utility.yul\":11700:11704   */\n      dup1\n        /* \"#utility.yul\":11690:11698   */\n      dup7\n        /* \"#utility.yul\":11686:11705   */\n      and\n        /* \"#utility.yul\":11679:11684   */\n      dup5\n        /* \"#utility.yul\":11676:11706   */\n      or\n        /* \"#utility.yul\":11666:11706   */\n      swap3\n      pop\n        /* \"#utility.yul\":11395:11712   */\n      pop\n      pop\n        /* \"#utility.yul\":11319:11712   */\n      swap4\n      swap3\n      pop\n      pop\n      pop\n      jump\t// out\n        /* \"#utility.yul\":11718:11778   */\n    tag_90:\n        /* \"#utility.yul\":11746:11749   */\n      0x00\n        /* \"#utility.yul\":11767:11772   */\n      dup2\n        /* \"#utility.yul\":11760:11772   */\n      swap1\n      pop\n        /* \"#utility.yul\":11718:11778   */\n      swap2\n      swap1\n      pop\n      jump\t// out\n        /* \"#utility.yul\":11784:11926   */\n    tag_91:\n        /* \"#utility.yul\":11834:11843   */\n      0x00\n        /* \"#utility.yul\":11867:11920   */\n      tag_220\n        /* \"#utility.yul\":11885:11919   */\n      tag_221\n        /* \"#utility.yul\":11894:11918   */\n      tag_222\n        /* \"#utility.yul\":11912:11917   */\n      dup5\n        /* \"#utility.yul\":11894:11918   */\n      tag_57\n      jump\t// in\n    tag_222:\n        /* \"#utility.yul\":11885:11919   */\n      tag_90\n      jump\t// in\n    tag_221:\n        /* \"#utility.yul\":11867:11920   */\n      tag_57\n      jump\t// in\n    tag_220:\n        /* \"#utility.yul\":11854:11920   */\n      swap1\n      pop\n        /* \"#utility.yul\":11784:11926   */\n      swap2\n      swap1\n      pop\n      jump\t// out\n        /* \"#utility.yul\":11932:12007   */\n    tag_92:\n        /* \"#utility.yul\":11975:11978   */\n      0x00\n        /* \"#utility.yul\":11996:12001   */\n      dup2\n        /* \"#utility.yul\":11989:12001   */\n      swap1\n      pop\n        /* \"#utility.yul\":11932:12007   */\n      swap2\n      swap1\n      pop\n      jump\t// out\n        /* \"#utility.yul\":12013:12282   */\n    tag_93:\n        /* \"#utility.yul\":12123:12162   */\n      tag_225\n        /* \"#utility.yul\":12154:12161   */\n      dup4\n        /* \"#utility.yul\":12123:12162   */\n      tag_91\n      jump\t// in\n    tag_225:\n        /* \"#utility.yul\":12184:12275   */\n      tag_226\n        /* \"#utility.yul\":12233:12274   */\n      tag_227\n        /* \"#utility.yul\":12257:12273   */\n      dup3\n        /* \"#utility.yul\":12233:12274   */\n      tag_92\n      jump\t// in\n    tag_227:\n        /* \"#utility.yul\":12225:12231   */\n      dup5\n        /* \"#utility.yul\":12218:12222   */\n      dup5\n        /* \"#utility.yul\":12212:12223   */\n      sload\n        /* \"#utility.yul\":12184:12275   */\n      tag_89\n      jump\t// in\n    tag_226:\n        /* \"#utility.yul\":12178:12182   */\n      dup3\n        /* \"#utility.yul\":12171:12276   */\n      sstore\n        /* \"#utility.yul\":12089:12282   */\n      pop\n        /* \"#utility.yul\":12013:12282   */\n      pop\n      pop\n      pop\n      jump\t// out\n        /* \"#utility.yul\":12288:12361   */\n    tag_94:\n        /* \"#utility.yul\":12333:12336   */\n      0x00\n        /* \"#utility.yul\":12288:12361   */\n      swap1\n      jump\t// out\n        /* \"#utility.yul\":12367:12556   */\n    tag_95:\n        /* \"#utility.yul\":12444:12476   */\n      tag_230\n      tag_94\n      jump\t// in\n    tag_230:\n        /* \"#utility.yul\":12485:12550   */\n      tag_231\n        /* \"#utility.yul\":12543:12549   */\n      dup2\n        /* \"#utility.yul\":12535:12541   */\n      dup5\n        /* \"#utility.yul\":12529:12533   */\n      dup5\n        /* \"#utility.yul\":12485:12550   */\n      tag_93\n      jump\t// in\n    tag_231:\n        /* \"#utility.yul\":12420:12556   */\n      pop\n        /* \"#utility.yul\":12367:12556   */\n      pop\n      pop\n      jump\t// out\n        /* \"#utility.yul\":12562:12748   */\n    tag_96:\n        /* \"#utility.yul\":12622:12742   */\n    tag_233:\n        /* \"#utility.yul\":12639:12642   */\n      dup2\n        /* \"#utility.yul\":12632:12637   */\n      dup2\n        /* \"#utility.yul\":12629:12643   */\n      lt\n        /* \"#utility.yul\":12622:12742   */\n      iszero\n      tag_235\n      jumpi\n        /* \"#utility.yul\":12693:12732   */\n      tag_236\n        /* \"#utility.yul\":12730:12731   */\n      0x00\n        /* \"#utility.yul\":12723:12728   */\n      dup3\n        /* \"#utility.yul\":12693:12732   */\n      tag_95\n      jump\t// in\n    tag_236:\n        /* \"#utility.yul\":12666:12667   */\n      0x01\n        /* \"#utility.yul\":12659:12664   */\n      dup2\n        /* \"#utility.yul\":12655:12668   */\n      add\n        /* \"#utility.yul\":12646:12668   */\n      swap1\n      pop\n        /* \"#utility.yul\":12622:12742   */\n      jump(tag_233)\n    tag_235:\n        /* \"#utility.yul\":12562:12748   */\n      pop\n      pop\n      jump\t// out\n        /* \"#utility.yul\":12754:13297   */\n    tag_97:\n        /* \"#utility.yul\":12855:12857   */\n      0x1f\n        /* \"#utility.yul\":12850:12853   */\n      dup3\n        /* \"#utility.yul\":12847:12858   */\n      gt\n        /* \"#utility.yul\":12844:13290   */\n      iszero\n      tag_238\n      jumpi\n        /* \"#utility.yul\":12889:12927   */\n      tag_239\n        /* \"#utility.yul\":12921:12926   */\n      dup2\n        /* \"#utility.yul\":12889:12927   */\n      tag_86\n      jump\t// in\n    tag_239:\n        /* \"#utility.yul\":12973:13002   */\n      tag_240\n        /* \"#utility.yul\":12991:13001   */\n      dup5\n        /* \"#utility.yul\":12973:13002   */\n      tag_87\n      jump\t// in\n    tag_240:\n        /* \"#utility.yul\":12963:12971   */\n      dup2\n        /* \"#utility.yul\":12959:13003   */\n      add\n        /* \"#utility.yul\":13156:13158   */\n      0x20\n        /* \"#utility.yul\":13144:13154   */\n      dup6\n        /* \"#utility.yul\":13141:13159   */\n      lt\n        /* \"#utility.yul\":13138:13187   */\n      iszero\n      tag_241\n      jumpi\n        /* \"#utility.yul\":13177:13185   */\n      dup2\n        /* \"#utility.yul\":13162:13185   */\n      swap1\n      pop\n        /* \"#utility.yul\":13138:13187   */\n    tag_241:\n        /* \"#utility.yul\":13200:13280   */\n      tag_242\n        /* \"#utility.yul\":13256:13278   */\n      tag_243\n        /* \"#utility.yul\":13274:13277   */\n      dup6\n        /* \"#utility.yul\":13256:13278   */\n      tag_87\n      jump\t// in\n    tag_243:\n        /* \"#utility.yul\":13246:13254   */\n      dup4\n        /* \"#utility.yul\":13242:13279   */\n      add\n        /* \"#utility.yul\":13229:13240   */\n      dup3\n        /* \"#utility.yul\":13200:13280   */\n      tag_96\n      jump\t// in\n    tag_242:\n        /* \"#utility.yul\":12859:13290   */\n      pop\n      pop\n        /* \"#utility.yul\":12844:13290   */\n    tag_238:\n        /* \"#utility.yul\":12754:13297   */\n      pop\n      pop\n      pop\n      jump\t// out\n        /* \"#utility.yul\":13303:13420   */\n    tag_98:\n        /* \"#utility.yul\":13357:13365   */\n      0x00\n        /* \"#utility.yul\":13407:13412   */\n      dup3\n        /* \"#utility.yul\":13401:13405   */\n      dup3\n        /* \"#utility.yul\":13397:13413   */\n      shr\n        /* \"#utility.yul\":13376:13413   */\n      swap1\n      pop\n        /* \"#utility.yul\":13303:13420   */\n      swap3\n      swap2\n      pop\n      pop\n      jump\t// out\n        /* \"#utility.yul\":13426:13595   */\n    tag_99:\n        /* \"#utility.yul\":13470:13476   */\n      0x00\n        /* \"#utility.yul\":13503:13554   */\n      tag_246\n        /* \"#utility.yul\":13551:13552   */\n      0x00\n        /* \"#utility.yul\":13547:13553   */\n      not\n        /* \"#utility.yul\":13539:13544   */\n      dup5\n        /* \"#utility.yul\":13536:13537   */\n      0x08\n        /* \"#utility.yul\":13532:13545   */\n      mul\n        /* \"#utility.yul\":13503:13554   */\n      tag_98\n      jump\t// in\n    tag_246:\n        /* \"#utility.yul\":13499:13555   */\n      not\n        /* \"#utility.yul\":13584:13588   */\n      dup1\n        /* \"#utility.yul\":13578:13582   */\n      dup4\n        /* \"#utility.yul\":13574:13589   */\n      and\n        /* \"#utility.yul\":13564:13589   */\n      swap2\n      pop\n        /* \"#utility.yul\":13477:13595   */\n      pop\n        /* \"#utility.yul\":13426:13595   */\n      swap3\n      swap2\n      pop\n      pop\n      jump\t// out\n        /* \"#utility.yul\":13600:13895   */\n    tag_100:\n        /* \"#utility.yul\":13676:13680   */\n      0x00\n        /* \"#utility.yul\":13822:13851   */\n      tag_248\n        /* \"#utility.yul\":13847:13850   */\n      dup4\n        /* \"#utility.yul\":13841:13845   */\n      dup4\n        /* \"#utility.yul\":13822:13851   */\n      tag_99\n      jump\t// in\n    tag_248:\n        /* \"#utility.yul\":13814:13851   */\n      swap2\n      pop\n        /* \"#utility.yul\":13884:13887   */\n      dup3\n        /* \"#utility.yul\":13881:13882   */\n      0x02\n        /* \"#utility.yul\":13877:13888   */\n      mul\n        /* \"#utility.yul\":13871:13875   */\n      dup3\n        /* \"#utility.yul\":13868:13889   */\n      or\n        /* \"#utility.yul\":13860:13889   */\n      swap1\n      pop\n        /* \"#utility.yul\":13600:13895   */\n      swap3\n      swap2\n      pop\n      pop\n      jump\t// out\n        /* \"#utility.yul\":13900:15295   */\n    tag_26:\n        /* \"#utility.yul\":14017:14054   */\n      tag_250\n        /* \"#utility.yul\":14050:14053   */\n      dup3\n        /* \"#utility.yul\":14017:14054   */\n      tag_76\n      jump\t// in\n    tag_250:\n        /* \"#utility.yul\":14119:14137   */\n      0xffffffffffffffff\n        /* \"#utility.yul\":14111:14117   */\n      dup2\n        /* \"#utility.yul\":14108:14138   */\n      gt\n        /* \"#utility.yul\":14105:14161   */\n      iszero\n      tag_251\n      jumpi\n        /* \"#utility.yul\":14141:14159   */\n      tag_252\n      tag_65\n      jump\t// in\n    tag_252:\n        /* \"#utility.yul\":14105:14161   */\n    tag_251:\n        /* \"#utility.yul\":14185:14223   */\n      tag_253\n        /* \"#utility.yul\":14217:14221   */\n      dup3\n        /* \"#utility.yul\":14211:14222   */\n      sload\n        /* \"#utility.yul\":14185:14223   */\n      tag_41\n      jump\t// in\n    tag_253:\n        /* \"#utility.yul\":14270:14337   */\n      tag_254\n        /* \"#utility.yul\":14330:14336   */\n      dup3\n        /* \"#utility.yul\":14322:14328   */\n      dup3\n        /* \"#utility.yul\":14316:14320   */\n      dup6\n        /* \"#utility.yul\":14270:14337   */\n      tag_97\n      jump\t// in\n    tag_254:\n        /* \"#utility.yul\":14364:14365   */\n      0x00\n        /* \"#utility.yul\":14388:14392   */\n      0x20\n        /* \"#utility.yul\":14375:14392   */\n      swap1\n      pop\n        /* \"#utility.yul\":14420:14422   */\n      0x1f\n        /* \"#utility.yul\":14412:14418   */\n      dup4\n        /* \"#utility.yul\":14409:14423   */\n      gt\n        /* \"#utility.yul\":14437:14438   */\n      0x01\n        /* \"#utility.yul\":14432:15050   */\n      dup2\n      eq\n      tag_256\n      jumpi\n        /* \"#utility.yul\":15094:15095   */\n      0x00\n        /* \"#utility.yul\":15111:15117   */\n      dup5\n        /* \"#utility.yul\":15108:15185   */\n      iszero\n      tag_257\n      jumpi\n        /* \"#utility.yul\":15160:15169   */\n      dup3\n        /* \"#utility.yul\":15155:15158   */\n      dup8\n        /* \"#utility.yul\":15151:15170   */\n      add\n        /* \"#utility.yul\":15145:15171   */\n      mload\n        /* \"#utility.yul\":15136:15171   */\n      swap1\n      pop\n        /* \"#utility.yul\":15108:15185   */\n    tag_257:\n        /* \"#utility.yul\":15211:15278   */\n      tag_258\n        /* \"#utility.yul\":15271:15277   */\n      dup6\n        /* \"#utility.yul\":15264:15269   */\n      dup3\n        /* \"#utility.yul\":15211:15278   */\n      tag_100\n      jump\t// in\n    tag_258:\n        /* \"#utility.yul\":15205:15209   */\n      dup7\n        /* \"#utility.yul\":15198:15279   */\n      sstore\n        /* \"#utility.yul\":15067:15289   */\n      pop\n        /* \"#utility.yul\":14402:15289   */\n      jump(tag_255)\n        /* \"#utility.yul\":14432:15050   */\n    tag_256:\n        /* \"#utility.yul\":14484:14488   */\n      0x1f\n        /* \"#utility.yul\":14480:14489   */\n      not\n        /* \"#utility.yul\":14472:14478   */\n      dup5\n        /* \"#utility.yul\":14468:14490   */\n      and\n        /* \"#utility.yul\":14518:14555   */\n      tag_259\n        /* \"#utility.yul\":14550:14554   */\n      dup7\n        /* \"#utility.yul\":14518:14555   */\n      tag_86\n      jump\t// in\n    tag_259:\n        /* \"#utility.yul\":14577:14578   */\n      0x00\n        /* \"#utility.yul\":14591:14799   */\n    tag_260:\n        /* \"#utility.yul\":14605:14612   */\n      dup3\n        /* \"#utility.yul\":14602:14603   */\n      dup2\n        /* \"#utility.yul\":14599:14613   */\n      lt\n        /* \"#utility.yul\":14591:14799   */\n      iszero\n      tag_262\n      jumpi\n        /* \"#utility.yul\":14684:14693   */\n      dup5\n        /* \"#utility.yul\":14679:14682   */\n      dup10\n        /* \"#utility.yul\":14675:14694   */\n      add\n        /* \"#utility.yul\":14669:14695   */\n      mload\n        /* \"#utility.yul\":14661:14667   */\n      dup3\n        /* \"#utility.yul\":14654:14696   */\n      sstore\n        /* \"#utility.yul\":14735:14736   */\n      0x01\n        /* \"#utility.yul\":14727:14733   */\n      dup3\n        /* \"#utility.yul\":14723:14737   */\n      add\n        /* \"#utility.yul\":14713:14737   */\n      swap2\n      pop\n        /* \"#utility.yul\":14782:14784   */\n      0x20\n        /* \"#utility.yul\":14771:14780   */\n      dup6\n        /* \"#utility.yul\":14767:14785   */\n      add\n        /* \"#utility.yul\":14754:14785   */\n      swap5\n      pop\n        /* \"#utility.yul\":14628:14632   */\n      0x20\n        /* \"#utility.yul\":14625:14626   */\n      dup2\n        /* \"#utility.yul\":14621:14633   */\n      add\n        /* \"#utility.yul\":14616:14633   */\n      swap1\n      pop\n        /* \"#utility.yul\":14591:14799   */\n      jump(tag_260)\n    tag_262:\n        /* \"#utility.yul\":14827:14833   */\n      dup7\n        /* \"#utility.yul\":14818:14825   */\n      dup4\n        /* \"#utility.yul\":14815:14834   */\n      lt\n        /* \"#utility.yul\":14812:14991   */\n      iszero\n      tag_263\n      jumpi\n        /* \"#utility.yul\":14885:14894   */\n      dup5\n        /* \"#utility.yul\":14880:14883   */\n      dup10\n        /* \"#utility.yul\":14876:14895   */\n      add\n        /* \"#utility.yul\":14870:14896   */\n      mload\n        /* \"#utility.yul\":14928:14976   */\n      tag_264\n        /* \"#utility.yul\":14970:14974   */\n      0x1f\n        /* \"#utility.yul\":14962:14968   */\n      dup10\n        /* \"#utility.yul\":14958:14975   */\n      and\n        /* \"#utility.yul\":14947:14956   */\n      dup3\n        /* \"#utility.yul\":14928:14976   */\n      tag_99\n      jump\t// in\n    tag_264:\n        /* \"#utility.yul\":14920:14926   */\n      dup4\n        /* \"#utility.yul\":14913:14977   */\n      sstore\n        /* \"#utility.yul\":14835:14991   */\n      pop\n        /* \"#utility.yul\":14812:14991   */\n    tag_263:\n        /* \"#utility.yul\":15037:15038   */\n      0x01\n        /* \"#utility.yul\":15033:15034   */\n      0x02\n        /* \"#utility.yul\":15025:15031   */\n      dup9\n        /* \"#utility.yul\":15021:15035   */\n      mul\n        /* \"#utility.yul\":15017:15039   */\n      add\n        /* \"#utility.yul\":15011:15015   */\n      dup9\n        /* \"#utility.yul\":15004:15040   */\n      sstore\n        /* \"#utility.yul\":14439:15050   */\n      pop\n      pop\n      pop\n        /* \"#utility.yul\":14402:15289   */\n    tag_255:\n      pop\n        /* \"#utility.yul\":13992:15295   */\n      pop\n      pop\n      pop\n        /* \"#utility.yul\":13900:15295   */\n      pop\n      pop\n      jump\t// out\n        /* \"#utility.yul\":15301:15481   */\n    tag_30:\n        /* \"#utility.yul\":15349:15426   */\n      0x4e487b7100000000000000000000000000000000000000000000000000000000\n        /* \"#utility.yul\":15346:15347   */\n      0x00\n        /* \"#utility.yul\":15339:15427   */\n      mstore\n        /* \"#utility.yul\":15446:15450   */\n      0x32\n        /* \"#utility.yul\":15443:15444   */\n      0x04\n        /* \"#utility.yul\":15436:15451   */\n      mstore\n        /* \"#utility.yul\":15470:15474   */\n      0x24\n        /* \"#utility.yul\":15467:15468   */\n      0x00\n        /* \"#utility.yul\":15460:15475   */\n      revert\n\n    auxdata: 0xa2646970667358221220b8a701575c1f4a077d47d08e02049c0e310db96c41ad159ea7ba333836697c9564736f6c63430008120033\n}\n",
				"bytecode": {
					"linkReferences": {},
					"object": "608060405234801561001057600080fd5b50610d51806100206000396000f3fe608060405234801561001057600080fd5b506004361061004c5760003560e01c806327e9f2941461005157806356f67e771461006d5780635ece8f5e14610089578063654fc833146100a7575b600080fd5b61006b60048036038101906100669190610592565b6100c3565b005b6100876004803603810190610082919061078e565b610242565b005b61009161032f565b60405161009e91906109bf565b60405180910390f35b6100c160048036038101906100bc91906109e1565b61049c565b005b60008060003373ffffffffffffffffffffffffffffffffffffffff1673ffffffffffffffffffffffffffffffffffffffff1681526020019081526020016000208054905090506000803373ffffffffffffffffffffffffffffffffffffffff1673ffffffffffffffffffffffffffffffffffffffff168152602001908152602001600020604051806080016040528083815260200185858080601f016020809104026020016040519081016040528093929190818152602001838380828437600081840152601f19601f8201169050808301925050505050505081526020016000151581526020016000151581525090806001815401808255809150506001900390600052602060002090600302016000909190919091506000820151816000015560208201518160010190816101fa9190610c1a565b5060408201518160020160006101000a81548160ff02191690831515021790555060608201518160020160016101000a81548160ff0219169083151502179055505050505050565b816000803373ffffffffffffffffffffffffffffffffffffffff1673ffffffffffffffffffffffffffffffffffffffff168152602001908152602001600020848154811061029357610292610cec565b5b906000526020600020906003020160020160006101000a81548160ff021916908315150217905550806000803373ffffffffffffffffffffffffffffffffffffffff1673ffffffffffffffffffffffffffffffffffffffff168152602001908152602001600020848154811061030c5761030b610cec565b5b906000526020600020906003020160010190816103299190610c1a565b50505050565b60606000803373ffffffffffffffffffffffffffffffffffffffff1673ffffffffffffffffffffffffffffffffffffffff168152602001908152602001600020805480602002602001604051908101604052809291908181526020016000905b828210156104935783829060005260206000209060030201604051806080016040529081600082015481526020016001820180546103cc90610a3d565b80601f01602080910402602001604051908101604052809291908181526020018280546103f890610a3d565b80156104455780601f1061041a57610100808354040283529160200191610445565b820191906000526020600020905b81548152906001019060200180831161042857829003601f168201915b505050505081526020016002820160009054906101000a900460ff161515151581526020016002820160019054906101000a900460ff1615151515815250508152602001906001019061038f565b50505050905090565b60016000803373ffffffffffffffffffffffffffffffffffffffff1673ffffffffffffffffffffffffffffffffffffffff16815260200190815260200160002082815481106104ee576104ed610cec565b5b906000526020600020906003020160020160016101000a81548160ff02191690831515021790555050565b6000604051905090565b600080fd5b600080fd5b600080fd5b600080fd5b600080fd5b60008083601f8401126105525761055161052d565b5b8235905067ffffffffffffffff81111561056f5761056e610532565b5b60208301915083600182028301111561058b5761058a610537565b5b9250929050565b600080602083850312156105a9576105a8610523565b5b600083013567ffffffffffffffff8111156105c7576105c6610528565b5b6105d38582860161053c565b92509250509250929050565b6000819050919050565b6105f2816105df565b81146105fd57600080fd5b50565b60008135905061060f816105e9565b92915050565b60008115159050919050565b61062a81610615565b811461063557600080fd5b50565b60008135905061064781610621565b92915050565b600080fd5b6000601f19601f8301169050919050565b7f4e487b7100000000000000000000000000000000000000000000000000000000600052604160045260246000fd5b61069b82610652565b810181811067ffffffffffffffff821117156106ba576106b9610663565b5b80604052505050565b60006106cd610519565b90506106d98282610692565b919050565b600067ffffffffffffffff8211156106f9576106f8610663565b5b61070282610652565b9050602081019050919050565b82818337600083830152505050565b600061073161072c846106de565b6106c3565b90508281526020810184848401111561074d5761074c61064d565b5b61075884828561070f565b509392505050565b600082601f8301126107755761077461052d565b5b813561078584826020860161071e565b91505092915050565b6000806000606084860312156107a7576107a6610523565b5b60006107b586828701610600565b93505060206107c686828701610638565b925050604084013567ffffffffffffffff8111156107e7576107e6610528565b5b6107f386828701610760565b9150509250925092565b600081519050919050565b600082825260208201905092915050565b6000819050602082019050919050565b610832816105df565b82525050565b600081519050919050565b600082825260208201905092915050565b60005b83811015610872578082015181840152602081019050610857565b60008484015250505050565b600061088982610838565b6108938185610843565b93506108a3818560208601610854565b6108ac81610652565b840191505092915050565b6108c081610615565b82525050565b60006080830160008301516108de6000860182610829565b50602083015184820360208601526108f6828261087e565b915050604083015161090b60408601826108b7565b50606083015161091e60608601826108b7565b508091505092915050565b600061093583836108c6565b905092915050565b6000602082019050919050565b6000610955826107fd565b61095f8185610808565b93508360208202850161097185610819565b8060005b858110156109ad578484038952815161098e8582610929565b94506109998361093d565b925060208a01995050600181019050610975565b50829750879550505050505092915050565b600060208201905081810360008301526109d9818461094a565b905092915050565b6000602082840312156109f7576109f6610523565b5b6000610a0584828501610600565b91505092915050565b7f4e487b7100000000000000000000000000000000000000000000000000000000600052602260045260246000fd5b60006002820490506001821680610a5557607f821691505b602082108103610a6857610a67610a0e565b5b50919050565b60008190508160005260206000209050919050565b60006020601f8301049050919050565b600082821b905092915050565b600060088302610ad07fffffffffffffffffffffffffffffffffffffffffffffffffffffffffffffffff82610a93565b610ada8683610a93565b95508019841693508086168417925050509392505050565b6000819050919050565b6000610b17610b12610b0d846105df565b610af2565b6105df565b9050919050565b6000819050919050565b610b3183610afc565b610b45610b3d82610b1e565b848454610aa0565b825550505050565b600090565b610b5a610b4d565b610b65818484610b28565b505050565b5b81811015610b8957610b7e600082610b52565b600181019050610b6b565b5050565b601f821115610bce57610b9f81610a6e565b610ba884610a83565b81016020851015610bb7578190505b610bcb610bc385610a83565b830182610b6a565b50505b505050565b600082821c905092915050565b6000610bf160001984600802610bd3565b1980831691505092915050565b6000610c0a8383610be0565b9150826002028217905092915050565b610c2382610838565b67ffffffffffffffff811115610c3c57610c3b610663565b5b610c468254610a3d565b610c51828285610b8d565b600060209050601f831160018114610c845760008415610c72578287015190505b610c7c8582610bfe565b865550610ce4565b601f198416610c9286610a6e565b60005b82811015610cba57848901518255600182019150602085019450602081019050610c95565b86831015610cd75784890151610cd3601f891682610be0565b8355505b6001600288020188555050505b505050505050565b7f4e487b7100000000000000000000000000000000000000000000000000000000600052603260045260246000fdfea2646970667358221220b8a701575c1f4a077d47d08e02049c0e310db96c41ad159ea7ba333836697c9564736f6c63430008120033",
					"opcodes": "PUSH1 0x80 PUSH1 0x40 MSTORE CALLVALUE DUP1 ISZERO PUSH2 0x10 JUMPI PUSH1 0x0 DUP1 REVERT JUMPDEST POP PUSH2 0xD51 DUP1 PUSH2 0x20 PUSH1 0x0 CODECOPY PUSH1 0x0 RETURN INVALID PUSH1 0x80 PUSH1 0x40 MSTORE CALLVALUE DUP1 ISZERO PUSH2 0x10 JUMPI PUSH1 0x0 DUP1 REVERT JUMPDEST POP PUSH1 0x4 CALLDATASIZE LT PUSH2 0x4C JUMPI PUSH1 0x0 CALLDATALOAD PUSH1 0xE0 SHR DUP1 PUSH4 0x27E9F294 EQ PUSH2 0x51 JUMPI DUP1 PUSH4 0x56F67E77 EQ PUSH2 0x6D JUMPI DUP1 PUSH4 0x5ECE8F5E EQ PUSH2 0x89 JUMPI DUP1 PUSH4 0x654FC833 EQ PUSH2 0xA7 JUMPI JUMPDEST PUSH1 0x0 DUP1 REVERT JUMPDEST PUSH2 0x6B PUSH1 0x4 DUP1 CALLDATASIZE SUB DUP2 ADD SWAP1 PUSH2 0x66 SWAP2 SWAP1 PUSH2 0x592 JUMP JUMPDEST PUSH2 0xC3 JUMP JUMPDEST STOP JUMPDEST PUSH2 0x87 PUSH1 0x4 DUP1 CALLDATASIZE SUB DUP2 ADD SWAP1 PUSH2 0x82 SWAP2 SWAP1 PUSH2 0x78E JUMP JUMPDEST PUSH2 0x242 JUMP JUMPDEST STOP JUMPDEST PUSH2 0x91 PUSH2 0x32F JUMP JUMPDEST PUSH1 0x40 MLOAD PUSH2 0x9E SWAP2 SWAP1 PUSH2 0x9BF JUMP JUMPDEST PUSH1 0x40 MLOAD DUP1 SWAP2 SUB SWAP1 RETURN JUMPDEST PUSH2 0xC1 PUSH1 0x4 DUP1 CALLDATASIZE SUB DUP2 ADD SWAP1 PUSH2 0xBC SWAP2 SWAP1 PUSH2 0x9E1 JUMP JUMPDEST PUSH2 0x49C JUMP JUMPDEST STOP JUMPDEST PUSH1 0x0 DUP1 PUSH1 0x0 CALLER PUSH20 0xFFFFFFFFFFFFFFFFFFFFFFFFFFFFFFFFFFFFFFFF AND PUSH20 0xFFFFFFFFFFFFFFFFFFFFFFFFFFFFFFFFFFFFFFFF AND DUP2 MSTORE PUSH1 0x20 ADD SWAP1 DUP2 MSTORE PUSH1 0x20 ADD PUSH1 0x0 KECCAK256 DUP1 SLOAD SWAP1 POP SWAP1 POP PUSH1 0x0 DUP1 CALLER PUSH20 0xFFFFFFFFFFFFFFFFFFFFFFFFFFFFFFFFFFFFFFFF AND PUSH20 0xFFFFFFFFFFFFFFFFFFFFFFFFFFFFFFFFFFFFFFFF AND DUP2 MSTORE PUSH1 0x20 ADD SWAP1 DUP2 MSTORE PUSH1 0x20 ADD PUSH1 0x0 KECCAK256 PUSH1 0x40 MLOAD DUP1 PUSH1 0x80 ADD PUSH1 0x40 MSTORE DUP1 DUP4 DUP2 MSTORE PUSH1 0x20 ADD DUP6 DUP6 DUP1 DUP1 PUSH1 0x1F ADD PUSH1 0x20 DUP1 SWAP2 DIV MUL PUSH1 0x20 ADD PUSH1 0x40 MLOAD SWAP1 DUP2 ADD PUSH1 0x40 MSTORE DUP1 SWAP4 SWAP3 SWAP2 SWAP1 DUP2 DUP2 MSTORE PUSH1 0x20 ADD DUP4 DUP4 DUP1 DUP3 DUP5 CALLDATACOPY PUSH1 0x0 DUP2 DUP5 ADD MSTORE PUSH1 0x1F NOT PUSH1 0x1F DUP3 ADD AND SWAP1 POP DUP1 DUP4 ADD SWAP3 POP POP POP POP POP POP POP DUP2 MSTORE PUSH1 0x20 ADD PUSH1 0x0 ISZERO ISZERO DUP2 MSTORE PUSH1 0x20 ADD PUSH1 0x0 ISZERO ISZERO DUP2 MSTORE POP SWAP1 DUP1 PUSH1 0x1 DUP2 SLOAD ADD DUP1 DUP3 SSTORE DUP1 SWAP2 POP POP PUSH1 0x1 SWAP1 SUB SWAP1 PUSH1 0x0 MSTORE PUSH1 0x20 PUSH1 0x0 KECCAK256 SWAP1 PUSH1 0x3 MUL ADD PUSH1 0x0 SWAP1 SWAP2 SWAP1 SWAP2 SWAP1 SWAP2 POP PUSH1 0x0 DUP3 ADD MLOAD DUP2 PUSH1 0x0 ADD SSTORE PUSH1 0x20 DUP3 ADD MLOAD DUP2 PUSH1 0x1 ADD SWAP1 DUP2 PUSH2 0x1FA SWAP2 SWAP1 PUSH2 0xC1A JUMP JUMPDEST POP PUSH1 0x40 DUP3 ADD MLOAD DUP2 PUSH1 0x2 ADD PUSH1 0x0 PUSH2 0x100 EXP DUP2 SLOAD DUP2 PUSH1 0xFF MUL NOT AND SWAP1 DUP4 ISZERO ISZERO MUL OR SWAP1 SSTORE POP PUSH1 0x60 DUP3 ADD MLOAD DUP2 PUSH1 0x2 ADD PUSH1 0x1 PUSH2 0x100 EXP DUP2 SLOAD DUP2 PUSH1 0xFF MUL NOT AND SWAP1 DUP4 ISZERO ISZERO MUL OR SWAP1 SSTORE POP POP POP POP POP POP JUMP JUMPDEST DUP2 PUSH1 0x0 DUP1 CALLER PUSH20 0xFFFFFFFFFFFFFFFFFFFFFFFFFFFFFFFFFFFFFFFF AND PUSH20 0xFFFFFFFFFFFFFFFFFFFFFFFFFFFFFFFFFFFFFFFF AND DUP2 MSTORE PUSH1 0x20 ADD SWAP1 DUP2 MSTORE PUSH1 0x20 ADD PUSH1 0x0 KECCAK256 DUP5 DUP2 SLOAD DUP2 LT PUSH2 0x293 JUMPI PUSH2 0x292 PUSH2 0xCEC JUMP JUMPDEST JUMPDEST SWAP1 PUSH1 0x0 MSTORE PUSH1 0x20 PUSH1 0x0 KECCAK256 SWAP1 PUSH1 0x3 MUL ADD PUSH1 0x2 ADD PUSH1 0x0 PUSH2 0x100 EXP DUP2 SLOAD DUP2 PUSH1 0xFF MUL NOT AND SWAP1 DUP4 ISZERO ISZERO MUL OR SWAP1 SSTORE POP DUP1 PUSH1 0x0 DUP1 CALLER PUSH20 0xFFFFFFFFFFFFFFFFFFFFFFFFFFFFFFFFFFFFFFFF AND PUSH20 0xFFFFFFFFFFFFFFFFFFFFFFFFFFFFFFFFFFFFFFFF AND DUP2 MSTORE PUSH1 0x20 ADD SWAP1 DUP2 MSTORE PUSH1 0x20 ADD PUSH1 0x0 KECCAK256 DUP5 DUP2 SLOAD DUP2 LT PUSH2 0x30C JUMPI PUSH2 0x30B PUSH2 0xCEC JUMP JUMPDEST JUMPDEST SWAP1 PUSH1 0x0 MSTORE PUSH1 0x20 PUSH1 0x0 KECCAK256 SWAP1 PUSH1 0x3 MUL ADD PUSH1 0x1 ADD SWAP1 DUP2 PUSH2 0x329 SWAP2 SWAP1 PUSH2 0xC1A JUMP JUMPDEST POP POP POP POP JUMP JUMPDEST PUSH1 0x60 PUSH1 0x0 DUP1 CALLER PUSH20 0xFFFFFFFFFFFFFFFFFFFFFFFFFFFFFFFFFFFFFFFF AND PUSH20 0xFFFFFFFFFFFFFFFFFFFFFFFFFFFFFFFFFFFFFFFF AND DUP2 MSTORE PUSH1 0x20 ADD SWAP1 DUP2 MSTORE PUSH1 0x20 ADD PUSH1 0x0 KECCAK256 DUP1 SLOAD DUP1 PUSH1 0x20 MUL PUSH1 0x20 ADD PUSH1 0x40 MLOAD SWAP1 DUP2 ADD PUSH1 0x40 MSTORE DUP1 SWAP3 SWAP2 SWAP1 DUP2 DUP2 MSTORE PUSH1 0x20 ADD PUSH1 0x0 SWAP1 JUMPDEST DUP3 DUP3 LT ISZERO PUSH2 0x493 JUMPI DUP4 DUP3 SWAP1 PUSH1 0x0 MSTORE PUSH1 0x20 PUSH1 0x0 KECCAK256 SWAP1 PUSH1 0x3 MUL ADD PUSH1 0x40 MLOAD DUP1 PUSH1 0x80 ADD PUSH1 0x40 MSTORE SWAP1 DUP2 PUSH1 0x0 DUP3 ADD SLOAD DUP2 MSTORE PUSH1 0x20 ADD PUSH1 0x1 DUP3 ADD DUP1 SLOAD PUSH2 0x3CC SWAP1 PUSH2 0xA3D JUMP JUMPDEST DUP1 PUSH1 0x1F ADD PUSH1 0x20 DUP1 SWAP2 DIV MUL PUSH1 0x20 ADD PUSH1 0x40 MLOAD SWAP1 DUP2 ADD PUSH1 0x40 MSTORE DUP1 SWAP3 SWAP2 SWAP1 DUP2 DUP2 MSTORE PUSH1 0x20 ADD DUP3 DUP1 SLOAD PUSH2 0x3F8 SWAP1 PUSH2 0xA3D JUMP JUMPDEST DUP1 ISZERO PUSH2 0x445 JUMPI DUP1 PUSH1 0x1F LT PUSH2 0x41A JUMPI PUSH2 0x100 DUP1 DUP4 SLOAD DIV MUL DUP4 MSTORE SWAP2 PUSH1 0x20 ADD SWAP2 PUSH2 0x445 JUMP JUMPDEST DUP3 ADD SWAP2 SWAP1 PUSH1 0x0 MSTORE PUSH1 0x20 PUSH1 0x0 KECCAK256 SWAP1 JUMPDEST DUP2 SLOAD DUP2 MSTORE SWAP1 PUSH1 0x1 ADD SWAP1 PUSH1 0x20 ADD DUP1 DUP4 GT PUSH2 0x428 JUMPI DUP3 SWAP1 SUB PUSH1 0x1F AND DUP3 ADD SWAP2 JUMPDEST POP POP POP POP POP DUP2 MSTORE PUSH1 0x20 ADD PUSH1 0x2 DUP3 ADD PUSH1 0x0 SWAP1 SLOAD SWAP1 PUSH2 0x100 EXP SWAP1 DIV PUSH1 0xFF AND ISZERO ISZERO ISZERO ISZERO DUP2 MSTORE PUSH1 0x20 ADD PUSH1 0x2 DUP3 ADD PUSH1 0x1 SWAP1 SLOAD SWAP1 PUSH2 0x100 EXP SWAP1 DIV PUSH1 0xFF AND ISZERO ISZERO ISZERO ISZERO DUP2 MSTORE POP POP DUP2 MSTORE PUSH1 0x20 ADD SWAP1 PUSH1 0x1 ADD SWAP1 PUSH2 0x38F JUMP JUMPDEST POP POP POP POP SWAP1 POP SWAP1 JUMP JUMPDEST PUSH1 0x1 PUSH1 0x0 DUP1 CALLER PUSH20 0xFFFFFFFFFFFFFFFFFFFFFFFFFFFFFFFFFFFFFFFF AND PUSH20 0xFFFFFFFFFFFFFFFFFFFFFFFFFFFFFFFFFFFFFFFF AND DUP2 MSTORE PUSH1 0x20 ADD SWAP1 DUP2 MSTORE PUSH1 0x20 ADD PUSH1 0x0 KECCAK256 DUP3 DUP2 SLOAD DUP2 LT PUSH2 0x4EE JUMPI PUSH2 0x4ED PUSH2 0xCEC JUMP JUMPDEST JUMPDEST SWAP1 PUSH1 0x0 MSTORE PUSH1 0x20 PUSH1 0x0 KECCAK256 SWAP1 PUSH1 0x3 MUL ADD PUSH1 0x2 ADD PUSH1 0x1 PUSH2 0x100 EXP DUP2 SLOAD DUP2 PUSH1 0xFF MUL NOT AND SWAP1 DUP4 ISZERO ISZERO MUL OR SWAP1 SSTORE POP POP JUMP JUMPDEST PUSH1 0x0 PUSH1 0x40 MLOAD SWAP1 POP SWAP1 JUMP JUMPDEST PUSH1 0x0 DUP1 REVERT JUMPDEST PUSH1 0x0 DUP1 REVERT JUMPDEST PUSH1 0x0 DUP1 REVERT JUMPDEST PUSH1 0x0 DUP1 REVERT JUMPDEST PUSH1 0x0 DUP1 REVERT JUMPDEST PUSH1 0x0 DUP1 DUP4 PUSH1 0x1F DUP5 ADD SLT PUSH2 0x552 JUMPI PUSH2 0x551 PUSH2 0x52D JUMP JUMPDEST JUMPDEST DUP3 CALLDATALOAD SWAP1 POP PUSH8 0xFFFFFFFFFFFFFFFF DUP2 GT ISZERO PUSH2 0x56F JUMPI PUSH2 0x56E PUSH2 0x532 JUMP JUMPDEST JUMPDEST PUSH1 0x20 DUP4 ADD SWAP2 POP DUP4 PUSH1 0x1 DUP3 MUL DUP4 ADD GT ISZERO PUSH2 0x58B JUMPI PUSH2 0x58A PUSH2 0x537 JUMP JUMPDEST JUMPDEST SWAP3 POP SWAP3 SWAP1 POP JUMP JUMPDEST PUSH1 0x0 DUP1 PUSH1 0x20 DUP4 DUP6 SUB SLT ISZERO PUSH2 0x5A9 JUMPI PUSH2 0x5A8 PUSH2 0x523 JUMP JUMPDEST JUMPDEST PUSH1 0x0 DUP4 ADD CALLDATALOAD PUSH8 0xFFFFFFFFFFFFFFFF DUP2 GT ISZERO PUSH2 0x5C7 JUMPI PUSH2 0x5C6 PUSH2 0x528 JUMP JUMPDEST JUMPDEST PUSH2 0x5D3 DUP6 DUP3 DUP7 ADD PUSH2 0x53C JUMP JUMPDEST SWAP3 POP SWAP3 POP POP SWAP3 POP SWAP3 SWAP1 POP JUMP JUMPDEST PUSH1 0x0 DUP2 SWAP1 POP SWAP2 SWAP1 POP JUMP JUMPDEST PUSH2 0x5F2 DUP2 PUSH2 0x5DF JUMP JUMPDEST DUP2 EQ PUSH2 0x5FD JUMPI PUSH1 0x0 DUP1 REVERT JUMPDEST POP JUMP JUMPDEST PUSH1 0x0 DUP2 CALLDATALOAD SWAP1 POP PUSH2 0x60F DUP2 PUSH2 0x5E9 JUMP JUMPDEST SWAP3 SWAP2 POP POP JUMP JUMPDEST PUSH1 0x0 DUP2 ISZERO ISZERO SWAP1 POP SWAP2 SWAP1 POP JUMP JUMPDEST PUSH2 0x62A DUP2 PUSH2 0x615 JUMP JUMPDEST DUP2 EQ PUSH2 0x635 JUMPI PUSH1 0x0 DUP1 REVERT JUMPDEST POP JUMP JUMPDEST PUSH1 0x0 DUP2 CALLDATALOAD SWAP1 POP PUSH2 0x647 DUP2 PUSH2 0x621 JUMP JUMPDEST SWAP3 SWAP2 POP POP JUMP JUMPDEST PUSH1 0x0 DUP1 REVERT JUMPDEST PUSH1 0x0 PUSH1 0x1F NOT PUSH1 0x1F DUP4 ADD AND SWAP1 POP SWAP2 SWAP1 POP JUMP JUMPDEST PUSH32 0x4E487B7100000000000000000000000000000000000000000000000000000000 PUSH1 0x0 MSTORE PUSH1 0x41 PUSH1 0x4 MSTORE PUSH1 0x24 PUSH1 0x0 REVERT JUMPDEST PUSH2 0x69B DUP3 PUSH2 0x652 JUMP JUMPDEST DUP2 ADD DUP2 DUP2 LT PUSH8 0xFFFFFFFFFFFFFFFF DUP3 GT OR ISZERO PUSH2 0x6BA JUMPI PUSH2 0x6B9 PUSH2 0x663 JUMP JUMPDEST JUMPDEST DUP1 PUSH1 0x40 MSTORE POP POP POP JUMP JUMPDEST PUSH1 0x0 PUSH2 0x6CD PUSH2 0x519 JUMP JUMPDEST SWAP1 POP PUSH2 0x6D9 DUP3 DUP3 PUSH2 0x692 JUMP JUMPDEST SWAP2 SWAP1 POP JUMP JUMPDEST PUSH1 0x0 PUSH8 0xFFFFFFFFFFFFFFFF DUP3 GT ISZERO PUSH2 0x6F9 JUMPI PUSH2 0x6F8 PUSH2 0x663 JUMP JUMPDEST JUMPDEST PUSH2 0x702 DUP3 PUSH2 0x652 JUMP JUMPDEST SWAP1 POP PUSH1 0x20 DUP2 ADD SWAP1 POP SWAP2 SWAP1 POP JUMP JUMPDEST DUP3 DUP2 DUP4 CALLDATACOPY PUSH1 0x0 DUP4 DUP4 ADD MSTORE POP POP POP JUMP JUMPDEST PUSH1 0x0 PUSH2 0x731 PUSH2 0x72C DUP5 PUSH2 0x6DE JUMP JUMPDEST PUSH2 0x6C3 JUMP JUMPDEST SWAP1 POP DUP3 DUP2 MSTORE PUSH1 0x20 DUP2 ADD DUP5 DUP5 DUP5 ADD GT ISZERO PUSH2 0x74D JUMPI PUSH2 0x74C PUSH2 0x64D JUMP JUMPDEST JUMPDEST PUSH2 0x758 DUP5 DUP3 DUP6 PUSH2 0x70F JUMP JUMPDEST POP SWAP4 SWAP3 POP POP POP JUMP JUMPDEST PUSH1 0x0 DUP3 PUSH1 0x1F DUP4 ADD SLT PUSH2 0x775 JUMPI PUSH2 0x774 PUSH2 0x52D JUMP JUMPDEST JUMPDEST DUP2 CALLDATALOAD PUSH2 0x785 DUP5 DUP3 PUSH1 0x20 DUP7 ADD PUSH2 0x71E JUMP JUMPDEST SWAP2 POP POP SWAP3 SWAP2 POP POP JUMP JUMPDEST PUSH1 0x0 DUP1 PUSH1 0x0 PUSH1 0x60 DUP5 DUP7 SUB SLT ISZERO PUSH2 0x7A7 JUMPI PUSH2 0x7A6 PUSH2 0x523 JUMP JUMPDEST JUMPDEST PUSH1 0x0 PUSH2 0x7B5 DUP7 DUP3 DUP8 ADD PUSH2 0x600 JUMP JUMPDEST SWAP4 POP POP PUSH1 0x20 PUSH2 0x7C6 DUP7 DUP3 DUP8 ADD PUSH2 0x638 JUMP JUMPDEST SWAP3 POP POP PUSH1 0x40 DUP5 ADD CALLDATALOAD PUSH8 0xFFFFFFFFFFFFFFFF DUP2 GT ISZERO PUSH2 0x7E7 JUMPI PUSH2 0x7E6 PUSH2 0x528 JUMP JUMPDEST JUMPDEST PUSH2 0x7F3 DUP7 DUP3 DUP8 ADD PUSH2 0x760 JUMP JUMPDEST SWAP2 POP POP SWAP3 POP SWAP3 POP SWAP3 JUMP JUMPDEST PUSH1 0x0 DUP2 MLOAD SWAP1 POP SWAP2 SWAP1 POP JUMP JUMPDEST PUSH1 0x0 DUP3 DUP3 MSTORE PUSH1 0x20 DUP3 ADD SWAP1 POP SWAP3 SWAP2 POP POP JUMP JUMPDEST PUSH1 0x0 DUP2 SWAP1 POP PUSH1 0x20 DUP3 ADD SWAP1 POP SWAP2 SWAP1 POP JUMP JUMPDEST PUSH2 0x832 DUP2 PUSH2 0x5DF JUMP JUMPDEST DUP3 MSTORE POP POP JUMP JUMPDEST PUSH1 0x0 DUP2 MLOAD SWAP1 POP SWAP2 SWAP1 POP JUMP JUMPDEST PUSH1 0x0 DUP3 DUP3 MSTORE PUSH1 0x20 DUP3 ADD SWAP1 POP SWAP3 SWAP2 POP POP JUMP JUMPDEST PUSH1 0x0 JUMPDEST DUP4 DUP2 LT ISZERO PUSH2 0x872 JUMPI DUP1 DUP3 ADD MLOAD DUP2 DUP5 ADD MSTORE PUSH1 0x20 DUP2 ADD SWAP1 POP PUSH2 0x857 JUMP JUMPDEST PUSH1 0x0 DUP5 DUP5 ADD MSTORE POP POP POP POP JUMP JUMPDEST PUSH1 0x0 PUSH2 0x889 DUP3 PUSH2 0x838 JUMP JUMPDEST PUSH2 0x893 DUP2 DUP6 PUSH2 0x843 JUMP JUMPDEST SWAP4 POP PUSH2 0x8A3 DUP2 DUP6 PUSH1 0x20 DUP7 ADD PUSH2 0x854 JUMP JUMPDEST PUSH2 0x8AC DUP2 PUSH2 0x652 JUMP JUMPDEST DUP5 ADD SWAP2 POP POP SWAP3 SWAP2 POP POP JUMP JUMPDEST PUSH2 0x8C0 DUP2 PUSH2 0x615 JUMP JUMPDEST DUP3 MSTORE POP POP JUMP JUMPDEST PUSH1 0x0 PUSH1 0x80 DUP4 ADD PUSH1 0x0 DUP4 ADD MLOAD PUSH2 0x8DE PUSH1 0x0 DUP7 ADD DUP3 PUSH2 0x829 JUMP JUMPDEST POP PUSH1 0x20 DUP4 ADD MLOAD DUP5 DUP3 SUB PUSH1 0x20 DUP7 ADD MSTORE PUSH2 0x8F6 DUP3 DUP3 PUSH2 0x87E JUMP JUMPDEST SWAP2 POP POP PUSH1 0x40 DUP4 ADD MLOAD PUSH2 0x90B PUSH1 0x40 DUP7 ADD DUP3 PUSH2 0x8B7 JUMP JUMPDEST POP PUSH1 0x60 DUP4 ADD MLOAD PUSH2 0x91E PUSH1 0x60 DUP7 ADD DUP3 PUSH2 0x8B7 JUMP JUMPDEST POP DUP1 SWAP2 POP POP SWAP3 SWAP2 POP POP JUMP JUMPDEST PUSH1 0x0 PUSH2 0x935 DUP4 DUP4 PUSH2 0x8C6 JUMP JUMPDEST SWAP1 POP SWAP3 SWAP2 POP POP JUMP JUMPDEST PUSH1 0x0 PUSH1 0x20 DUP3 ADD SWAP1 POP SWAP2 SWAP1 POP JUMP JUMPDEST PUSH1 0x0 PUSH2 0x955 DUP3 PUSH2 0x7FD JUMP JUMPDEST PUSH2 0x95F DUP2 DUP6 PUSH2 0x808 JUMP JUMPDEST SWAP4 POP DUP4 PUSH1 0x20 DUP3 MUL DUP6 ADD PUSH2 0x971 DUP6 PUSH2 0x819 JUMP JUMPDEST DUP1 PUSH1 0x0 JUMPDEST DUP6 DUP2 LT ISZERO PUSH2 0x9AD JUMPI DUP5 DUP5 SUB DUP10 MSTORE DUP2 MLOAD PUSH2 0x98E DUP6 DUP3 PUSH2 0x929 JUMP JUMPDEST SWAP5 POP PUSH2 0x999 DUP4 PUSH2 0x93D JUMP JUMPDEST SWAP3 POP PUSH1 0x20 DUP11 ADD SWAP10 POP POP PUSH1 0x1 DUP2 ADD SWAP1 POP PUSH2 0x975 JUMP JUMPDEST POP DUP3 SWAP8 POP DUP8 SWAP6 POP POP POP POP POP POP SWAP3 SWAP2 POP POP JUMP JUMPDEST PUSH1 0x0 PUSH1 0x20 DUP3 ADD SWAP1 POP DUP2 DUP2 SUB PUSH1 0x0 DUP4 ADD MSTORE PUSH2 0x9D9 DUP2 DUP5 PUSH2 0x94A JUMP JUMPDEST SWAP1 POP SWAP3 SWAP2 POP POP JUMP JUMPDEST PUSH1 0x0 PUSH1 0x20 DUP3 DUP5 SUB SLT ISZERO PUSH2 0x9F7 JUMPI PUSH2 0x9F6 PUSH2 0x523 JUMP JUMPDEST JUMPDEST PUSH1 0x0 PUSH2 0xA05 DUP5 DUP3 DUP6 ADD PUSH2 0x600 JUMP JUMPDEST SWAP2 POP POP SWAP3 SWAP2 POP POP JUMP JUMPDEST PUSH32 0x4E487B7100000000000000000000000000000000000000000000000000000000 PUSH1 0x0 MSTORE PUSH1 0x22 PUSH1 0x4 MSTORE PUSH1 0x24 PUSH1 0x0 REVERT JUMPDEST PUSH1 0x0 PUSH1 0x2 DUP3 DIV SWAP1 POP PUSH1 0x1 DUP3 AND DUP1 PUSH2 0xA55 JUMPI PUSH1 0x7F DUP3 AND SWAP2 POP JUMPDEST PUSH1 0x20 DUP3 LT DUP2 SUB PUSH2 0xA68 JUMPI PUSH2 0xA67 PUSH2 0xA0E JUMP JUMPDEST JUMPDEST POP SWAP2 SWAP1 POP JUMP JUMPDEST PUSH1 0x0 DUP2 SWAP1 POP DUP2 PUSH1 0x0 MSTORE PUSH1 0x20 PUSH1 0x0 KECCAK256 SWAP1 POP SWAP2 SWAP1 POP JUMP JUMPDEST PUSH1 0x0 PUSH1 0x20 PUSH1 0x1F DUP4 ADD DIV SWAP1 POP SWAP2 SWAP1 POP JUMP JUMPDEST PUSH1 0x0 DUP3 DUP3 SHL SWAP1 POP SWAP3 SWAP2 POP POP JUMP JUMPDEST PUSH1 0x0 PUSH1 0x8 DUP4 MUL PUSH2 0xAD0 PUSH32 0xFFFFFFFFFFFFFFFFFFFFFFFFFFFFFFFFFFFFFFFFFFFFFFFFFFFFFFFFFFFFFFFF DUP3 PUSH2 0xA93 JUMP JUMPDEST PUSH2 0xADA DUP7 DUP4 PUSH2 0xA93 JUMP JUMPDEST SWAP6 POP DUP1 NOT DUP5 AND SWAP4 POP DUP1 DUP7 AND DUP5 OR SWAP3 POP POP POP SWAP4 SWAP3 POP POP POP JUMP JUMPDEST PUSH1 0x0 DUP2 SWAP1 POP SWAP2 SWAP1 POP JUMP JUMPDEST PUSH1 0x0 PUSH2 0xB17 PUSH2 0xB12 PUSH2 0xB0D DUP5 PUSH2 0x5DF JUMP JUMPDEST PUSH2 0xAF2 JUMP JUMPDEST PUSH2 0x5DF JUMP JUMPDEST SWAP1 POP SWAP2 SWAP1 POP JUMP JUMPDEST PUSH1 0x0 DUP2 SWAP1 POP SWAP2 SWAP1 POP JUMP JUMPDEST PUSH2 0xB31 DUP4 PUSH2 0xAFC JUMP JUMPDEST PUSH2 0xB45 PUSH2 0xB3D DUP3 PUSH2 0xB1E JUMP JUMPDEST DUP5 DUP5 SLOAD PUSH2 0xAA0 JUMP JUMPDEST DUP3 SSTORE POP POP POP POP JUMP JUMPDEST PUSH1 0x0 SWAP1 JUMP JUMPDEST PUSH2 0xB5A PUSH2 0xB4D JUMP JUMPDEST PUSH2 0xB65 DUP2 DUP5 DUP5 PUSH2 0xB28 JUMP JUMPDEST POP POP POP JUMP JUMPDEST JUMPDEST DUP2 DUP2 LT ISZERO PUSH2 0xB89 JUMPI PUSH2 0xB7E PUSH1 0x0 DUP3 PUSH2 0xB52 JUMP JUMPDEST PUSH1 0x1 DUP2 ADD SWAP1 POP PUSH2 0xB6B JUMP JUMPDEST POP POP JUMP JUMPDEST PUSH1 0x1F DUP3 GT ISZERO PUSH2 0xBCE JUMPI PUSH2 0xB9F DUP2 PUSH2 0xA6E JUMP JUMPDEST PUSH2 0xBA8 DUP5 PUSH2 0xA83 JUMP JUMPDEST DUP2 ADD PUSH1 0x20 DUP6 LT ISZERO PUSH2 0xBB7 JUMPI DUP2 SWAP1 POP JUMPDEST PUSH2 0xBCB PUSH2 0xBC3 DUP6 PUSH2 0xA83 JUMP JUMPDEST DUP4 ADD DUP3 PUSH2 0xB6A JUMP JUMPDEST POP POP JUMPDEST POP POP POP JUMP JUMPDEST PUSH1 0x0 DUP3 DUP3 SHR SWAP1 POP SWAP3 SWAP2 POP POP JUMP JUMPDEST PUSH1 0x0 PUSH2 0xBF1 PUSH1 0x0 NOT DUP5 PUSH1 0x8 MUL PUSH2 0xBD3 JUMP JUMPDEST NOT DUP1 DUP4 AND SWAP2 POP POP SWAP3 SWAP2 POP POP JUMP JUMPDEST PUSH1 0x0 PUSH2 0xC0A DUP4 DUP4 PUSH2 0xBE0 JUMP JUMPDEST SWAP2 POP DUP3 PUSH1 0x2 MUL DUP3 OR SWAP1 POP SWAP3 SWAP2 POP POP JUMP JUMPDEST PUSH2 0xC23 DUP3 PUSH2 0x838 JUMP JUMPDEST PUSH8 0xFFFFFFFFFFFFFFFF DUP2 GT ISZERO PUSH2 0xC3C JUMPI PUSH2 0xC3B PUSH2 0x663 JUMP JUMPDEST JUMPDEST PUSH2 0xC46 DUP3 SLOAD PUSH2 0xA3D JUMP JUMPDEST PUSH2 0xC51 DUP3 DUP3 DUP6 PUSH2 0xB8D JUMP JUMPDEST PUSH1 0x0 PUSH1 0x20 SWAP1 POP PUSH1 0x1F DUP4 GT PUSH1 0x1 DUP2 EQ PUSH2 0xC84 JUMPI PUSH1 0x0 DUP5 ISZERO PUSH2 0xC72 JUMPI DUP3 DUP8 ADD MLOAD SWAP1 POP JUMPDEST PUSH2 0xC7C DUP6 DUP3 PUSH2 0xBFE JUMP JUMPDEST DUP7 SSTORE POP PUSH2 0xCE4 JUMP JUMPDEST PUSH1 0x1F NOT DUP5 AND PUSH2 0xC92 DUP7 PUSH2 0xA6E JUMP JUMPDEST PUSH1 0x0 JUMPDEST DUP3 DUP2 LT ISZERO PUSH2 0xCBA JUMPI DUP5 DUP10 ADD MLOAD DUP3 SSTORE PUSH1 0x1 DUP3 ADD SWAP2 POP PUSH1 0x20 DUP6 ADD SWAP5 POP PUSH1 0x20 DUP2 ADD SWAP1 POP PUSH2 0xC95 JUMP JUMPDEST DUP7 DUP4 LT ISZERO PUSH2 0xCD7 JUMPI DUP5 DUP10 ADD MLOAD PUSH2 0xCD3 PUSH1 0x1F DUP10 AND DUP3 PUSH2 0xBE0 JUMP JUMPDEST DUP4 SSTORE POP JUMPDEST PUSH1 0x1 PUSH1 0x2 DUP9 MUL ADD DUP9 SSTORE POP POP POP JUMPDEST POP POP POP POP POP POP JUMP JUMPDEST PUSH32 0x4E487B7100000000000000000000000000000000000000000000000000000000 PUSH1 0x0 MSTORE PUSH1 0x32 PUSH1 0x4 MSTORE PUSH1 0x24 PUSH1 0x0 REVERT INVALID LOG2 PUSH5 0x6970667358 0x22 SLT KECCAK256 0xB8 0xA7 ADD JUMPI 0x5C 0x1F 0x4A SMOD PUSH30 0x47D08E02049C0E310DB96C41AD159EA7BA333836697C9564736F6C634300 ADDMOD SLT STOP CALLER "
				},
				"gasEstimates": {
					"creation": {
						"codeDepositCost": "681800",
						"executionCost": "715",
						"totalCost": "682515"
					},
					"external": {
						"addItem(string)": "infinite",
						"deleteItem(uint256)": "27053",
						"getToDoList()": "infinite",
						"updateItem(uint256,bool,string)": "infinite"
					}
				},
				"methodIdentifiers": {
					"addItem(string)": "27e9f294",
					"deleteItem(uint256)": "654fc833",
					"getToDoList()": "5ece8f5e",
					"updateItem(uint256,bool,string)": "56f67e77"
				}
			},
			"storageLayout": {
				"storage": [
					{
						"astId": 16,
						"contract": "todo/todo.sol:ToDoContract",
						"label": "ListToOwners",
						"offset": 0,
						"slot": "0",
						"type": "t_mapping(t_address,t_array(t_struct(toDoList)10_storage)dyn_storage)"
					}
				],
				"types": {
					"t_address": {
						"encoding": "inplace",
						"label": "address",
						"numberOfBytes": "20"
					},
					"t_array(t_struct(toDoList)10_storage)dyn_storage": {
						"base": "t_struct(toDoList)10_storage",
						"encoding": "dynamic_array",
						"label": "struct ToDoContract.toDoList[]",
						"numberOfBytes": "32"
					},
					"t_bool": {
						"encoding": "inplace",
						"label": "bool",
						"numberOfBytes": "1"
					},
					"t_mapping(t_address,t_array(t_struct(toDoList)10_storage)dyn_storage)": {
						"encoding": "mapping",
						"key": "t_address",
						"label": "mapping(address => struct ToDoContract.toDoList[])",
						"numberOfBytes": "32",
						"value": "t_array(t_struct(toDoList)10_storage)dyn_storage"
					},
					"t_string_storage": {
						"encoding": "bytes",
						"label": "string",
						"numberOfBytes": "32"
					},
					"t_struct(toDoList)10_storage": {
						"encoding": "inplace",
						"label": "struct ToDoContract.toDoList",
						"members": [
							{
								"astId": 3,
								"contract": "todo/todo.sol:ToDoContract",
								"label": "id",
								"offset": 0,
								"slot": "0",
								"type": "t_uint256"
							},
							{
								"astId": 5,
								"contract": "todo/todo.sol:ToDoContract",
								"label": "toDoItem",
								"offset": 0,
								"slot": "1",
								"type": "t_string_storage"
							},
							{
								"astId": 7,
								"contract": "todo/todo.sol:ToDoContract",
								"label": "isDone",
								"offset": 0,
								"slot": "2",
								"type": "t_bool"
							},
							{
								"astId": 9,
								"contract": "todo/todo.sol:ToDoContract",
								"label": "isDeleted",
								"offset": 1,
								"slot": "2",
								"type": "t_bool"
							}
						],
						"numberOfBytes": "96"
					},
					"t_uint256": {
						"encoding": "inplace",
						"label": "uint256",
						"numberOfBytes": "32"
					}
				}
			},
			"userdoc": {
				"kind": "user",
				"methods": {},
				"version": 1
			}
		}
	}
}